:100000000C9434000C943E000C943E000C943E0082
:100010000C943E000C943E000C943E000C943E0068
:100020000C943E000C943E000C943E000C943E0058
:100030000C943E000C943E000C943E000C943E0048
:100040000C943E000C943E000C943E000C943E0038
:100050000C943E000C943E000C943E000C943E0028
:100060000C943E000C943E0011241FBECFEFD8E04C
:10007000DEBFCDBF0E94CE000C9400020C940000A5
:10008000CF93DF93CDB7DEB72F970FB6F894DEBFCF
:100090000FBECDBF8F8775C080E090E0A0E8BFE3C2
:1000A00089839A83AB83BC8320E030E04AE753E442
:1000B00069817A818B819C810E947501DC01CB0171
:1000C0008D839E83AF83B88720E030E040E85FE314
:1000D0006D817E818F8198850E94F40088232CF4A5
:1000E00081E090E09A8789873FC020E03FEF4FE7AB
:1000F00057E46D817E818F8198850E947101181669
:100100004CF520E030E040E251E469817A818B8156
:100110009C810E947501DC01CB01BC01CD010E94D4
:10012000F800DC01CB019A8789870FC089E190E054
:100130009C878B878B859C850197F1F79C878B87A4
:1001400089859A8501979A87898789859A850097F5
:1001500069F714C06D817E818F8198850E94F800B7
:10016000DC01CB019A87898789859A859E878D874F
:100170008D859E850197F1F79E878D878F858150AC
:100180008F878F85882309F087CF2F960FB6F89435
:10019000DEBF0FBECDBFDF91CF910895CF93DF9328
:1001A000CDB7DEB787E290E027E230E0F9012081A9
:1001B0002460FC01208388E290E028E230E0F9012D
:1001C00020812B7FFC01208384E60E94400088E28E
:1001D00090E028E230E0F90120812460FC012083D6
:1001E00084E60E944000E7CF2FD008F481E0089514
:1001F00057D088F09F5790F0B92F9927B751A0F0AA
:10020000D1F0660F771F881F991F1AF0BA95C9F7AA
:1002100012C0B13081F05ED0B1E008955BC0672FAD
:10022000782F8827B85F39F0B93FCCF3869577955A
:100230006795B395D9F73EF4909580957095619543
:100240007F4F8F4F9F4F0895990F0008550FAA0BAE
:10025000E0E8FEEF16161706E807F907C0F01216D9
:100260001306E407F50798F0621B730B840B950BDC
:1002700039F40A2661F0232B242B252B21F4089531
:100280000A2609F4A140A6958FEF811D811D0895CE
:1002900057FD9058440F551F59F05F3F71F0479537
:1002A000880F97FB991F61F09F3F79F0879508951C
:1002B000121613061406551FF2CF4695F1DF08C03B
:1002C000161617061806991FF1CF86957105610558
:1002D00008940895E894BB2766277727CB0197F900
:1002E0000895B2DF08F48FEF08950BD078C069D07D
:1002F00028F06ED018F0952309F05AC05FC0112481
:10030000EACFC6DFA0F3959FD1F3950F50E0551FBC
:10031000629FF001729FBB27F00DB11D639FAA275A
:10032000F00DB11DAA1F649F6627B00DA11D661FA9
:10033000829F2227B00DA11D621F739FB00DA11DCA
:10034000621F839FA00D611D221F749F3327A00D84
:10035000611D231F849F600D211D822F762F6A2F20
:1003600011249F5750408AF0E1F088234AF0EE0FA5
:10037000FF1FBB1F661F771F881F91505040A9F7B2
:100380009E3F510570F014C0A6CF5F3FECF3983E3E
:10039000DCF3869577956795B795F795E7959F5F19
:1003A000C1F7FE2B880F911D9695879597F90895B3
:1003B00097F99F6780E870E060E008959FEF80EC18
:1003C000089500240A9416161706180609060895BB
:1003D00000240A9412161306140605060895092E21
:1003E0000394000C11F4882352F0BB0F40F4BF2B90
:1003F00011F460FF04C06F5F7F4F8F4F9F4F0895D0
:04040000F894FFCF9E
:00000001FF
