:100000000C9434000C943E000C943E000C943E0082
:100010000C943E000C943E000C943E000C943E0068
:100020000C943E000C943E000C943E000C943E0058
:100030000C943E000C943E000C943E000C943E0048
:100040000C943E000C943E000C943E000C943E0038
:100050000C943E000C943E000C943E000C943E0028
:100060000C943E000C943E0011241FBECFEFD8E04C
:10007000DEBFCDBF0E9440000C9456000C940000DF
:10008000259A2D9A2FEF87EA91E6215080409040E3
:10009000E1F700C000002D982FEF87EA91E621508C
:1000A00080409040E1F700C00000EBCFF8940C9442
:0600B0005900F894FFCF97
:00000001FF
