:100000000C945D000C9485000C9485000C94850084
:100010000C9485000C9485000C9485000C9485004C
:100020000C9485000C9485000C9485000C9485003C
:100030000C9485000C9485000C9485000C9485002C
:100040000C94D3000C9485000C9485000C948500CE
:100050000C9485000C9485000C9485000C9485000C
:100060000C9485000C94850000000007000201003C
:100070000003040600000000000000000102040864
:100080001020408001020408102001020408102002
:10009000040404040404040402020202020203032E
:1000A0000303030300000000250028002B000000CC
:1000B0000000240027002A00C00011241FBECFEF3B
:1000C000D8E0DEBFCDBF11E0A0E0B1E0E2E9F8E0AA
:1000D00002C005900D92A033B107D9F721E0A0E34B
:1000E000B1E001C01D92AE34B207E1F710E0CAEBF7
:1000F000D0E004C02297FE010E944304C83BD10710
:10010000C9F70E94D4010C943E040C94000020E036
:1001100042E060E180E391E00C94C602CF93DF936C
:10012000C0E0D0E0AE0184E0559547958A95E1F7AF
:10013000BE016F70772780E391E00E949102E09109
:100140003001F09131010280F381E02D45E050E073
:1001500062E271E080E391E0099564EF71E080E094
:1001600090E00E94400180E391E00E948A02219683
:10017000C032D105B9F6DF91CF9108950C948E006D
:10018000CF92EF920F9392E0C92E23E0E22E04E08B
:1001900025E04BE06CE080E391E00E947A030F9150
:1001A000EF90CF9008951F920F920FB60F921124E7
:1001B0002F933F938F939F93AF93BF93809146016B
:1001C00090914701A0914801B091490130914501BA
:1001D00023E0230F2D3720F40196A11DB11D05C08A
:1001E00026E8230F0296A11DB11D2093450180939F
:1001F000460190934701A0934801B0934901809133
:100200004A0190914B01A0914C01B0914D01019692
:10021000A11DB11D80934A0190934B01A0934C0105
:10022000B0934D01BF91AF919F918F913F912F91CD
:100230000F900FBE0F901F9018953FB7F8948091C4
:100240004A0190914B01A0914C01B0914D0126B50E
:10025000A89B05C02F3F19F00196A11DB11D3FBFFE
:100260006627782F892F9A2F620F711D811D911D8E
:1002700042E0660F771F881F991F4A95D1F70895AE
:10028000CF92DF92EF92FF92CF93DF936B017C01CD
:100290000E941D01EB01C114D104E104F10479F0C5
:1002A0000E941D016C1B7D0B683E7340A0F381E032
:1002B000C81AD108E108F108C851DC4FECCFDF9132
:1002C000CF91FF90EF90DF90CF9008950197009726
:1002D00039F0880F991F880F991F02970197F1F73E
:1002E0000895789484B5826084BD84B5816084BDAE
:1002F00085B5826085BD85B5816085BDEEE6F0E09F
:10030000808181608083E1E8F0E0108280818260FA
:100310008083808181608083E0E8F0E0808181607B
:100320008083E1EBF0E0808184608083E0EBF0E0AB
:10033000808181608083EAE7F0E08081846080834F
:1003400080818260808380818160808380818068F9
:1003500080831092C1000895CF92DF92EF92FF92B6
:100360000F931F93CF93DF936C017A01EB01E60E9D
:10037000F71E00E010E0CE15DF0561F06991D601AF
:10038000ED91FC910190F081E02DC6010995080FD7
:10039000191FF1CFC801DF91CF911F910F91FF90ED
:1003A000EF90DF90CF9008950E9471010E94870026
:1003B000C0E0D0E00E94BE002097E1F30E94000060
:1003C000F9CFCF93DF93EC0160E08E810E940804A7
:1003D00081E090E00E94660161E08E810E94080445
:1003E00081E090E00E94660160E08E810E94080436
:1003F00084E690E0DF91CF910C946601CF92DF927A
:10040000EF92FF920F931F93CF93DF937C01C0E095
:10041000D0E0C62ED12C87010C0F1D1F61E0F80122
:1004200087810E94CF03B6010C2E02C07595679597
:100430000A94E2F76170F80187810E94080421960E
:10044000C430D10541F7C701DF91CF911F910F91C2
:10045000FF90EF90DF90CF900C94E101CF92DF926C
:10046000EF92FF920F931F93CF93DF937C01C0E035
:10047000D0E0C62ED12C87010C0F1D1F61E0F801C2
:1004800087810E94CF03B6010C2E02C07595679537
:100490000A94E2F76170F80187810E9408042196AE
:1004A000C830D10541F7C701DF91CF911F910F915E
:1004B000FF90EF90DF90CF900C94E1011F93CF93CA
:1004C000DF93EC01162F642F8C810E9408048D812C
:1004D0008F3F19F060E00E9408048F85612F84FF30
:1004E00006C0CE01DF91CF911F910C942E0270E0D7
:1004F00084E0759567958A95E1F7CE010E94FE012B
:10050000612FCE01DF91CF911F910C94FE0140E04D
:100510000C945E0261E00E94870280ED97E00C94EB
:100520006601CF93DF93CDB7DEB728970FB6F89467
:10053000DEBF0FBECDBF28E0E0E0F1E0DE011196A6
:1005400001900D922A95E1F7FC012389421710F0E2
:100550004FEF420FFE013196E40FF11DE40FF11D44
:100560002081260F2068622F28960FB6F894DEBFF0
:100570000FBECDBFDF91CF910C948702FC01608943
:10058000262F2460208B6C600C948702CF93DF931E
:10059000EC01423018F08F8588608F874B8B1C8A66
:1005A000222329F0413019F48F8584608F8780E5FC
:1005B00093EC0E94660160E08C810E94080460E078
:1005C0008E810E9408048D818F3F19F060E00E94A7
:1005D00008046F8564FD1DC063E0CE010E94FE012A
:1005E00084E991E10E94660163E0CE010E94FE0170
:1005F00084E991E10E94660163E0CE010E94FE0160
:1006000086E990E00E94660162E0CE010E94FE0150
:1006100016C06062CE010E94870284E991E10E94C7
:1006200066016F856062CE010E94870286E990E0D4
:100630000E9466016F856062CE010E9487026F850D
:100640006062CE010E94870284E0888BCE010E9406
:10065000BE02CE010E948A0282E0898B66E0CE0152
:10066000DF91CF910C9487026F927F928F92AF921D
:10067000CF92EF920F931F93CF93DF93CDB7DEB757
:100680003C01162F842F5D854E853F859889F301A7
:10069000848325830683E782C086A186828653876A
:1006A00044873587968761E00E94CF03F3018581F7
:1006B0008F3F19F061E00E94CF0361E0F301868172
:1006C0000E94CF03112319F0F301178603C080E1C4
:1006D000F301878720E041E060E1C301DF91CF9122
:1006E0001F910F91EF90CF90AF908F907F906F9070
:1006F0000C94C6028F92AF92CF92EF920F93DC01CF
:1007000013961C921E921297ECE2F1E0ED93FC938B
:100710001F921F921F921F928C2CAE2CC02EE22E85
:10072000042F2FEF462F61E00E9434030F900F90AB
:100730000F900F900F91EF90CF90AF908F90089502
:1007400041E00E945E0281E090E00895833081F0F4
:1007500028F4813099F08230A1F008958630A9F014
:100760008730B9F08430D1F4809180008F7D03C050
:10077000809180008F7780938000089584B58F7773
:1007800002C084B58F7D84BD08958091B0008F77BD
:1007900003C08091B0008F7D8093B0000895CF9307
:1007A000DF9390E0FC01E458FF4F2491FC01E057F7
:1007B000FF4F8491882349F190E0880F991FFC0135
:1007C000E255FF4FA591B4918C559F4FFC01C59107
:1007D000D4919FB7611108C0F8948C912095822321
:1007E0008C93888182230AC0623051F4F8948C91F2
:1007F000322F309583238C938881822B888304C089
:10080000F8948C91822B8C939FBFDF91CF910895A8
:100810000F931F93CF93DF931F92CDB7DEB7282F8F
:1008200030E0F901E859FF4F8491F901E458FF4F96
:100830001491F901E057FF4F04910023C9F0882378
:1008400021F069830E94A6036981E02FF0E0EE0F9A
:10085000FF1FEC55FF4FA591B4919FB7F8948C9171
:10086000611103C01095812301C0812B8C939FBF20
:100870000F90DF91CF911F910F910895F8940C94F0
:100880004704EE0FFF1F0590F491E02D0994F894B2
:02089000FFCF98
:10089200000040001400540068656C6C6F2C2077D7
:1008A2006F726C642C627574206E6F20677265655E
:1008B2006B0048656C6C6F0000000000A003AC0187
:00000001FF
