:100000000C9467050C94AA0C0C94D70C0C948F05D7
:100010000C948F050C948F050C948F050C948F0510
:100020000C948F050C948F050C948F050C948F0500
:100030000C948F050C948F050C948F050C948F05F0
:100040000C94040D0C948F050C945D110C94A0116C
:100050000C948F050C948F050C948F050C948F05D0
:100060000C94611A0C948F05084AD73B3BCE016E65
:1000700084BCBFFDC12F3D6C74319ABD56833DDAFF
:100080003D00C77F11BED9E4BB4C3E916BAAAABE0E
:10009000000000803F004649464F206F766572663B
:1000A0006C6F7721002900444D5020496E697469B6
:1000B000616C697A6174696F6E206661696C6564F0
:1000C0002028636F64652000444D50207265616490
:1000D00079212057616974696E6720666F722066A6
:1000E0006972737420696E746572727570742E2EE5
:1000F0002E00456E61626C696E6720696E74657270
:100100007275707420646574656374696F6E2028FD
:1001100041726475696E6F2065787465726E616C8A
:1001200020696E746572727570742030292E2E2EBF
:1001300000456E61626C696E6720444D502E2E2E14
:1001400000496E697469616C697A696E6720444D13
:10015000502E2E2E000A53656E6420616E79206346
:10016000686172616374657220746F20626567698B
:100170006E20444D502070726F6772616D6D696EB4
:100180006720616E642064656D6F3A20004D5055A4
:100190003630353020636F6E6E656374696F6E2024
:1001A0006661696C6564004D5055363035302063AA
:1001B0006F6E6E656374696F6E20737563636573CC
:1001C0007366756C0054657374696E672064657638
:1001D00069636520636F6E6E656374696F6E732EFD
:1001E0002E2E00496E697469616C697A696E6720A8
:1001F00049324320646576696365732E2E2E0001B3
:10020000B202FFFF0190040923A135016A02060032
:1002100001600800000000000000000060044000D1
:100220000000016202000000600400400000037B47
:10023000034CCD6C03AB0336567600680402CB4703
:10024000A202180400058BC1010C04000000000389
:100250007F060CC92C979797038903264666006C86
:1002600002200002400400000000024404000000DC
:100270000002480400000000024C040000000002DC
:100280005004000000000254040000000002580462
:1002900000000000025C040000000002BC0400003A
:1002A000000001EC0400004000037F060CC92C97FD
:1002B00097970402030D355D040904872D353D0031
:1002C000A3010000000001078601FE074105F1209F
:1002D000283038077E01300746019A074704F12885
:1002E0003038076C04F12830380216020001FB0098
:1002F000003E000B00360001000200030000006514
:100300000054FFEF0000FA80000B1282000100028F
:1003100000000000000000000000000000000028B5
:100320000000FFFF4581FFFFFA720000000000009F
:1003300003E80000000100017FFFFFFE8001001BB9
:100340000000000000000000000000000000003E6F
:1003500003304000000002CAE3093E800000200094
:10036000000000000000400000006000000041FFAD
:10037000000000000B2A0000165500002182FD87B6
:100380002650FD800000001F0000000580000000D6
:100390000000000100000002000000030000400017
:1003A00000000000046F0002653200005EC04000E3
:1003B0000000000000000000000000000000FB8CB6
:1003C0006F5DFD5D08D9007C733B006C12CC320080
:1003D000139D3200D0D632000800400001F4FFE641
:1003E0008079020000000000D0D600002710FB003A
:1003F00000004000000000000000000000000000BD
:1004000000010000000000000100010000000000E9
:10041000FA36FFBC308E0005FBF0FFD95BC8FFD079
:100420009ABE000010A9FFF41EB200CEBBF7000078
:10043000000100000004000200020200000CFFC2E4
:1004400080000001800000CF80004000000000001C
:100450000001000000000000060000000014000081
:10046000000000000000000000000000000000008C
:10047000000000000000000000000000000000007C
:10048000000000000000000000000000000000006C
:100490000000033F68B6793528BCC67ED16C800069
:1004A0000000400000000000B26A000000000000F0
:1004B00000000000000000003FF0000000300000DD
:1004C000000000000000000000000000000000002C
:1004D000000000000000000000000000000000001C
:1004E000254D002F706D000005AE000C02D00000FD
:1004F000000000650054FFEF000000000000000055
:1005000001000044000000000C0000000100000099
:1005100000000065000000540000FFEF0000000034
:10052000000000000000000000000000000040008B
:10053000000000000000000000000000000040007B
:1005400000000000000000000000000000000000AB
:100550000001000000020000000000000000000098
:10056000000000000000000000000000000000008B
:100570000000000000000000000000000000001B60
:10058000000000000000000000000000000000006B
:10059000000000000000000000000000000000005B
:1005A0000000000000000000000040000000001BF0
:1005B000000000000000000000000000000000003B
:1005C000000000000000000000000000000000002B
:1005D000000000000000000000000000000000001B
:1005E0000000000000000000000000000000D8DC57
:1005F000BAA2F1DEB2B8B4A88191F74A907F916AAD
:10060000F3F9DBA8F9B0BAA080F2CE81F3C2F1C150
:10061000F2C3F3CCA2B280F1C6D880BAA7DFDFDF85
:10062000F2A7C3CBC5B6F087A2942448703C95408E
:100630006834589B78A2F183922D557DD8B1B4B817
:10064000A1D09180F270F370F27C80A8F101B09893
:1006500087D943D886C988BAA1F20EB89780F1A984
:10066000DFDFDFAADFDFDFF2AAC5CDC7A90CC92C07
:1006700097979797F1A989264666B0B4BA80ACDE01
:10068000F2CAF1B28C02A9B69800890E161EB8A95A
:10069000B4992C547CB08AA896365676F1B9AFB48A
:1006A000B083C0B8A89711B18F98B9AFF0240844AF
:1006B000106418F1A329557DAF83B593AFF00028DE
:1006C00050F1A3869F61A6DADEDFD9FAA38696DB16
:1006D00031A6D9F8DFBAA68FC2C5C7B28CC1B8A2FD
:1006E000DFDFDFA3DFDFDFD8D8F1B8A8B286B498A8
:1006F0000D355DB8AA98B0872D353DB2B6BAAF8C2E
:1007000096198F9FA70E161EB49AB8AA872C547CF0
:10071000B9A3DEDFDFA3B180F2C4CDC9F1B8A9B4BB
:1007200099830D355D89B9A32D557DB593A30E161B
:100730001EA92C547CB8B4B0F19783A81184A509E4
:1007400098A383F0DA240844106418D8F1A5295539
:100750007DA58595021A2E3A565A4048F9F3A3D939
:10076000F8F098832408441064189782A8F111F0D7
:1007700098A2240844106418DAF3DED883A5940103
:10078000D9A302F1A2C3C5C7D8F18492A24DDA2A37
:10079000D84869D92AD86855DA32D85071D932D8B0
:1007A000705DDA3AD85879D93AD87893A34DDA2AD5
:1007B000D84869D92AD86855DA32D85071D932D890
:1007C000705DDA3AD85879D93AD878A88A9AF02858
:1007D00050789EF38818F19F1D98A8D908D8C89F13
:1007E000129EF315A8DA1210D8F1AFC8978734B566
:1007F000B994A421F3D922D8F22DF3D92AD8F2350D
:10080000F3D932D881A4606061D961D86C6869D9A4
:1008100069D8747071D971D8B1A384193D5DA3836F
:100820001A3E5E931030811011B8B0AF8F94F2DA97
:100830003ED8B49AA88729DAF8D8879A35DAF8D852
:10084000879A3DDAF8D8B1B9A49885022E56A581C9
:10085000000C14A397B08AF12DD928D84DD948D8C7
:100860006DD968D8B1840DDA0ED8A32983DA2C0E9D
:10087000D8A3844983DA2C4C0ED8B8B0A88A9AF54C
:1008800020AADADFD8A840AAD0DADED8A860AADA8F
:10089000D0DFD8F19786A8319B069907AB972888B7
:1008A0009BF00C201440B8B0B4A88C9CF0042851E4
:1008B000791D301438B282ABD0982C505078789B88
:1008C000F11AB0F08A9CA82951798B2951798A2490
:1008D00070598B2058718A4469388B3940688A6412
:1008E00048318B304960A588200971584468113916
:1008F00064493019F1AC002C547CF08CA8042850C9
:1009000078F1889726A85998AC8C02264666F0891B
:100910009CA8295179247059446938644831A988C0
:1009200009205970AB11384069A8193148608CA86A
:100930003C415C207C00F187981986A86E767EA9E0
:1009400099882D557D9EB9A38A228A6E8A568A5E21
:100950009FB183062646660E2E4E6E9DB8AD002CC6
:10096000547CF2B18CB499B9A32D557D8191AC38EA
:10097000AD3AB58391AC2DD928D84DD948D86DD989
:1009800068D88C9DAE29D904AED851D904AED87997
:10099000D904D881F39DAD008DAE1981ADD901D8B0
:1009A000F2AEDA26D88E912983A7D9ADADADADF3DD
:1009B0002AD8D8F1B0AC89913E5E76F3AC2E2EF1F8
:1009C000B18C5A9CAC2C2828289CAC3018A8988153
:1009D00028343C9724A728343C9C24F2B089AC915D
:1009E0002C4C6C8A9B2DD9D8D851D9D8D879D9D844
:1009F000D8F19E88A331DAD8D8912DD928D84DD9ED
:100A000048D86DD968D8B18393353D8025DAD8D8D8
:100A10008569DAD8D8B49381A328343CF3AB8BF83A
:100A2000A391B609B4D9ABDEFAB0879CB9A3DDF1C6
:100A3000A3A3A3A395F1A3A3A39DF1A3A3A3A3F2AF
:100A4000A3B49080F2A3A3A3A3A3A3A3A3A3A3B23D
:100A5000A3A3A3A3A3A3B087B599F1A3A3A398F1DC
:100A6000A3A3A3A397A3A3A3A3F39BA3A3DCB9A7C7
:100A7000F1262626D8D8FF0000000700020100005A
:100A8000030406000000000000000001020408103A
:100A900020408001020408102001020408102004F4
:100AA0000404040404040402020202020203030315
:100AB00003030300000000250028002B00000000B5
:100AC00000240027002A00005D0B5E12851311240C
:100AD0001FBECFEFD8E0DEBFCDBF11E0A0E0B1E098
:100AE000ECEBF1E402C005900D92AC33B107D9F7FD
:100AF00023E0ACE3B1E001C01D92AD34B207E1F7F1
:100B00001AE0CEECDAE004C02297FE010E94D82061
:100B1000C83CD107C9F70E94BE100C94941D0C94D8
:100B2000000081E080933C0108958F929F92AF92E4
:100B3000BF92CF92EF920F931F93CF93DF93CDB7D6
:100B4000DEB7C059D1090FB6F894DEBF0FBECDBFD6
:100B50005C010E9417146EE170E080E090E00E945A
:100B60007D0D60E0C5010E941E1421E041E060E1BE
:100B7000C5010E943A1566E0C5010E94451520E0B6
:100B800040E060E0C5010E943A15C5010E949F1433
:100B9000182FC5010E94C614882EC5010E94ED14AD
:100BA000982E4FE760E0C5010E94D71360E0C501B1
:100BB0000E94021448E660E0C5010E94D713C501F7
:100BC0000E94101464E170E080E090E00E947D0DCE
:100BD000EE24E39400E020E049E857E06EEE72E096
:100BE000C5010E949916882309F408C240EC50E020
:100BF0006EE272E0C5010E946417882309F400C206
:100C000063E0C5010E94251462E1C5010E94E3135F
:100C100064E0C5010E948D1361E0C5010E94931339
:100C200063E0C5010E949E1363E0C5010E94A91301
:100C300063E0C5010E94671760E0C5010E946D175F
:100C400060E0C5010E949814612FC5010E94BB1489
:100C5000682DC5010E94E214692DC5010E94091585
:100C6000812C912CF401E150FE4FE491A1E8B0E019
:100C7000AC0FBD1FA80DB11DEC9381E0880D9FEF57
:100C8000891A990AE3E0E81568F7CD57DF4F4881E4
:100C9000C358D04050E09A012E5F3F4F90E0281794
:100CA000390704F7C12CEE24E394CE57DF4F0881B7
:100CB000C258D040CF57DF4F2881C158D04061E89B
:100CC00070E06C0F7D1F6D5F7F4FC5010E94B515F1
:100CD00060E0F401E150FE4FE491A1E8B0E0AC0F18
:100CE000BD1FA60FB11DEC936F5FFFEF8F1A9F0A18
:100CF000643078F3CD57DF4F4881C358D04050E07F
:100D00009A012E5F3F4F862F90E0281739070CF786
:100D1000C12CEE24E394CE57DF4F0881C258D04057
:100D2000CF57DF4F2881C158D04061E870E06C0F89
:100D30007D1F6D5F7F4FC5010E94B515C5010E94E3
:100D40000914C5010E944414482FBE016F5F7F4FF4
:100D5000C5010E94601462E0C5010E94BF136CE9E6
:100D6000C5010E94CB1360E5C5010E94C51360E078
:100D7000C5010E94D113C5010E94091461E0C5019B
:100D80000E94FB1361E0C5010E942C15C5010E9461
:100D9000331560E0F401E150FE4FE491A1E8B0E0CA
:100DA000AC0FBD1FA60FB11DEC936F5F8FEF881ABC
:100DB000980A643078F3CD57DF4F4881C358D0404C
:100DC00050E09A012E5F3F4F862F90E02817390799
:100DD0000CF7C12CEE24E394CE57DF4F0881C258A4
:100DE000D040CF57DF4F2881C158D04061E870E034
:100DF0006C0F7D1F6D5F7F4FC5010E94B51560E0D0
:100E0000F401E150FE4FE491A1E8B0E0AC0FBD1F4A
:100E1000A60FB11DEC936F5F9FEF891A990A64309A
:100E200078F3CD57DF4F4881C358D04050E09A0146
:100E30002E5F3F4F862F90E0281739070CF7C12C03
:100E4000EE24E394CE57DF4F0881C258D040CF57ED
:100E5000DF4F2881C158D04061E870E06C0F7D1FE2
:100E60006D5F7F4FC5010E94B51560E0F401E15050
:100E7000FE4FE491A1E8B0E0AC0FBD1FA60FB11D7D
:100E8000EC936F5FEFEF8E1A9E0A643078F3CD57C4
:100E9000DF4F4881C358D04050E09A012E5F3F4F4A
:100EA000862F90E0281739070CF7C12CEE24E39425
:100EB000CE57DF4F0881C258D040CF57DF4F28812F
:100EC000C158D04061E870E06C0F7D1F6D5F7F4FAF
:100ED000C5010E94B515C5010E94441483309105D7
:100EE000D0F3482FBE016F5F7F4FC5010E94601491
:100EF00060E0F401E150FE4FE491A1E8B0E0AC0FF6
:100F0000BD1FA60FB11DEC936F5FFFEF8F1A9F0AF5
:100F1000643078F3CD57DF4F4881C358D04050E05C
:100F20009A012E5F3F4F862F90E0281739070CF764
:100F3000CE57DF4F0881C258D040CF57DF4F2881AE
:100F4000C158D04061E870E06C0F7D1F6D5F7F4F2E
:100F5000C5010E944B15C5010E94441483309105C0
:100F6000D0F3482FBE016F5F7F4FC5010E94601410
:100F7000F401E150FE4F60E08491A1E8B0E0AC0FD5
:100F8000BD1FA60FB11D8C936F5F643010F43196B6
:100F9000F3CFCD57DF4F4881C358D04050E09A017E
:100FA0002E5F3F4F862F90E02817390784F761E8BE
:100FB00070E06C0F7D1F6D5F7F4FC12CEE24E394BA
:100FC000CE57DF4F0881C258D040CF57DF4F28811E
:100FD000C158D040C5010E94B51560E0C5010E940E
:100FE0002C158AE290E0F50193838283C5010E946B
:100FF0000914C5010E94E91380E003C081E001C02B
:1010000082E0C057DF4F0FB6F894DEBF0FBECDBFF2
:10101000DF91CF911F910F91EF90CF90BF90AF9044
:101020009F908F900895CF93DF93DB01FA01309763
:1010300019F4EC01E881F981808190E0982F8827EC
:101040002181822B11969C938E93848190E0982F1E
:1010500088272581822B13969C938E9312978085E7
:1010600090E0982F88272185822B15969C938E934C
:101070001497848590E0982F88272585822B1796D2
:101080009C938E93169780E0DF91CF910895FF9205
:101090000F931F93CF93DF93CDB7DEB728970FB68B
:1010A000F894DEBF0FBECDBF8B01BE016F5F7F4FD7
:1010B0000E941308F82E81114CC069817A8188271B
:1010C00077FD8095982F0E94131F20E030E040E8C4
:1010D00058E30E94F31FF801608371838283938336
:1010E0006B817C81882777FD8095982F0E94131F44
:1010F00020E030E040E858E30E94F31FF8016483E9
:101100007583868397836D817E81882777FD80959F
:10111000982F0E94131F20E030E040E858E30E941F
:10112000F31FF80160877187828793876F817885C5
:10113000882777FD8095982F0E94131F20E030E0CC
:1011400040E858E30E94F31FF8016487758786879B
:1011500097878F2D28960FB6F894DEBF0FBECDBFB0
:10116000DF91CF911F910F91FF9008954F925F9261
:101170006F927F928F929F92AF92BF92CF92DF92A7
:10118000EF92FF920F931F93CF93DF93CDB7DEB70C
:1011900028970FB6F894DEBF0FBECDBF8B01DA01E2
:1011A0001496CD90DD90ED90FC9017971C964D9085
:1011B0005D906D907C901F978D909D90AD90BC90B0
:1011C000139718968D919D910D90BC91A02D8983B8
:1011D0009A83AB83BC83A3019201C701B6010E942D
:1011E000F31F6D837E838F83988729813A814B819A
:1011F0005C81C501B4010E94F31F9B01AC016D81AC
:101200007E818F8198850E94AD1D9B01AC010E945B
:10121000AE1DF8016083718382839383A7019601D9
:10122000C501B4010E94F31F6D837E838F8398876D
:10123000A301920169817A818B819C810E94F31FB5
:101240009B01AC016D817E818F8198850E94AE1DCE
:101250009B01AC010E94AE1DD80114966D937D9345
:101260008D939C931797A5019401C501B4010E9429
:10127000F31F4B015C01A7019601C701B6010E9453
:10128000F31F9B01AC01C501B4010E94AD1D6B01B0
:101290007C0129813A814B815C81CA01B9010E949C
:1012A000F31F9B01AC01C701B6010E94AD1D6B018C
:1012B0007C01A3019201C301B2010E94F31F9B01B3
:1012C000AC01C701B6010E94AE1DF80160877187AD
:1012D0008287938780E028960FB6F894DEBF0FBE12
:1012E000CDBFDF91CF911F910F91FF90EF90DF90D5
:1012F000CF90BF90AF909F908F907F906F905F90B6
:101300004F9008952F923F924F925F926F927F92EB
:101310008F929F92AF92BF92CF92DF92EF92FF9205
:101320000F931F93CF93DF9300D000D000D0CDB7A1
:10133000DEB71B018A013E832D83FA01C080D18074
:10134000E280F380A7019601C701B6010E94AE1D9D
:1013500069837A838B839C83F80184809580A6803F
:10136000B780A5019401C501B4010E94AE1D2B01F7
:101370003C01A701960169817A818B819C810E9441
:10138000F31F6B017C01A5019401C301B2010E940E
:10139000F31F9B01AC01C701B6010E94AE1D20E006
:1013A00030E040E85FE30E94AD1D6B017C01F80175
:1013B0002085318542855385C301B2010E94F31F08
:1013C0002B013C01F80124853585468557856981C7
:1013D0007A818B819C810E94F31F9B01AC01C30128
:1013E000B2010E94AD1DA70196010E94211EF101CC
:1013F0006083718382839383ED81FE816481758133
:1014000086819781C084D184E284F3849B01AC01FE
:101410000E94F31F4B015C01A7019601C701B601B1
:101420000E94F31F9B01AC01C501B4010E94AE1DD7
:101430000E945A209B01AC01ED81FE816081718187
:10144000828193810E94781E0E944C1EF101648368
:10145000758386839783ED81FE81608171818281AE
:101460009381C084D184E284F3849B01AC010E9407
:10147000F31F4B015C01A7019601C701B6010E9451
:10148000F31F9B01AC01C501B4010E94AE1D0E9477
:101490005A209B01AC01ED81FE81648175818681BA
:1014A00097810E94781E0E944C1EF101608771870F
:1014B0008287938780E026960FB6F894DEBF0FBE32
:1014C000CDBFDF91CF911F910F91FF90EF90DF90F3
:1014D000CF90BF90AF909F908F907F906F905F90D4
:1014E0004F903F902F9008958091BD01882309F47B
:1014F000E3C08091B7019091B8012091B90130917A
:10150000BA0140913C01411103C082179307C8F30F
:1015100010923C018FEB91E00E94E9138093BC0193
:101520008FEB91E00E9444149093B8018093B7012F
:101530002091BC0124FD03C08115944051F48FEB30
:1015400091E00E94091466E970E08FED91E00C943F
:10155000F60E21FF08954091B9015091BA01809192
:10156000B7019091B8018417950748F48FEB91E08B
:101570000E9444149093B8018093B701ECCF67E7C1
:1015800071E08FEB91E00E9460148091B70190911F
:10159000B8012091B9013091BA01821B930B90934D
:1015A000B8018093B70147E751E067E671E08FEB40
:1015B00091E00E94470847E651E069E471E08FEB53
:1015C00091E00E94B60829E431E047E651E06DE37E
:1015D00071E08FEB91E00E94820968E071E08FED8D
:1015E00091E00E94D90E20E030E044E353E46091A2
:1015F0003D0170913E0180913F01909140010E9418
:10160000F31F2BED3FE049E450E40E94781EAB014C
:10161000BC0122E030E08FED91E00E94AA106BE067
:1016200071E08FED91E00E94D90E20E030E044E3BC
:1016300053E4609141017091420180914301909186
:1016400044010E94F31F2BED3FE049E450E40E9467
:10165000781EAB01BC0122E030E08FED91E00E94EA
:10166000AA106BE071E08FED91E00E94D90E20E0AE
:1016700030E044E353E4609145017091460180916C
:101680004701909148010E94F31F2BED3FE049E490
:1016900050E40E94781EAB01BC0122E030E08FEDE7
:1016A00091E00E94AC106091BE0181E068276093D8
:1016B000BE018DE00C94400E08958FEB91E00E94E6
:1016C000891380E090E0A0E8BFE3809367019093E6
:1016D0006801A0936901B0936A0110926B011092A6
:1016E0006C0110926D0110926E0110926F011092B8
:1016F0007001109271011092720110927301109298
:10170000740110927501109276011092620110928C
:1017100061011092640110926301109266011092AF
:10172000650110925C0110925B0110925E011092B3
:101730005D011092600110925F01109256011092AB
:101740005501109258011092570110925A011092AF
:1017500059011092490110924A0110924B011092C6
:101760004C0110924D0110924E0110924F011092B7
:101770005001109251011092520110925301109297
:101780005401089589E892E00E944B1388E1809308
:10179000B80040E052EC61E070E08FED91E00E9413
:1017A000DB118FED91E00E945C128823D1F363EE90
:1017B00071E08FED91E00E94F60E8FEB91E00E94B8
:1017C000301465EC71E08FED91E00E94F60E8FEB26
:1017D00091E00E949014882319F067EA71E002C03A
:1017E0006DE871E08FED91E00E94F60E65E571E025
:1017F0008FED91E00E94F60E8FED91E00E94CB10EC
:10180000892B31F08FED91E00E94F410892BA1F724
:101810008FED91E00E94CB10892BD1F38FED91E0F9
:101820000E94CB10892B31F08FED91E00E94F410D3
:10183000892BA1F761E471E08FED91E00E94F60E33
:101840008FEB91E00E9495058093BB016CED70E0F9
:101850008FEB91E00E941A156CE470E08FEB91E041
:101860000E9420156BEA7FEF8FEB91E00E94261516
:101870006CEF76E08FEB91E00E9414158091BB0134
:10188000811130C061E371E08FED91E00E94F60EAE
:1018900061E08FEB91E00E942C1562EF70E08FED1C
:1018A00091E00E94F60E43E050E061E975E080E0CF
:1018B0000E948A0C8FEB91E00E94E9138093BC0197
:1018C00068EC70E08FED91E00E94F60E81E080936D
:1018D000BD018091C1019091C2019093BA018093A2
:1018E000B90114C067EA70E08FED91E00E94B40E78
:1018F0004AE050E06091BB018FED91E00E94B80F8B
:1019000065EA70E08FED91E00E94F60E61E08DE0F7
:101910000C94070E8230E8F4E82FF0E0EE0FFF1F82
:10192000EE52FE4F71836083813041F080916900F7
:101930008C7F842B80936900E89A089580916900D8
:10194000440F551F440F551F837F842B80936900DC
:10195000E99A08951F920F920FB60F9211242F93B8
:101960003F934F935F936F937F938F939F93AF9327
:10197000BF93EF93FF938091D2019091D301892B74
:1019800029F0E091D201F091D3010995FF91EF91F7
:10199000BF91AF919F918F917F916F915F914F9187
:1019A0003F912F910F900FBE0F901F9018951F928F
:1019B0000F920FB60F9211242F933F934F935F9383
:1019C0006F937F938F939F93AF93BF93EF93FF9307
:1019D0008091D4019091D501892B29F0E091D40117
:1019E000F091D5010995FF91EF91BF91AF919F9132
:1019F0008F917F916F915F914F913F912F910F90B8
:101A00000FBE0F901F9018951F920F920FB60F9256
:101A100011242F933F938F939F93AF93BF93809104
:101A2000D7019091D801A091D901B091DA013091FC
:101A3000D60123E0230F2D3720F40196A11DB11DFF
:101A400005C026E8230F0296A11DB11D2093D601E3
:101A50008093D7019093D801A093D901B093DA0174
:101A60008091DB019091DC01A091DD01B091DE015C
:101A70000196A11DB11D8093DB019093DC01A09321
:101A8000DD01B093DE01BF91AF919F918F913F91A6
:101A90002F910F900FBE0F901F9018952FB7F894AD
:101AA0006091D7017091D8018091D9019091DA01AC
:101AB0002FBF08953FB7F8948091DB019091DC012E
:101AC000A091DD01B091DE0126B5A89B05C02F3F96
:101AD00019F00196A11DB11D3FBF6627782F892FF0
:101AE0009A2F620F711D811D911D42E0660F771FB5
:101AF000881F991F4A95D1F70895CF92DF92EF92F0
:101B0000FF92CF93DF936B017C010E945A0DEB0192
:101B1000C114D104E104F10479F00E945A0D6C1B48
:101B20007D0B683E7340A0F381E0C81AD108E1083C
:101B3000F108C851DC4FECCFDF91CF91FF90EF90CF
:101B4000DF90CF900895789484B5826084BD84B589
:101B5000816084BD85B5826085BD85B5816085BDA8
:101B6000EEE6F0E0808181608083E1E8F0E01082C1
:101B7000808182608083808181608083E0E8F0E002
:101B8000808181608083E1EBF0E0808184608083EC
:101B9000E0EBF0E0808181608083EAE7F0E0808123
:101BA0008460808380818260808380818160808383
:101BB0008081806880831092C1000895833081F015
:101BC00028F4813099F08230A1F008958630A9F090
:101BD0008730B9F08430D1F4809180008F7D03C0CC
:101BE000809180008F7780938000089584B58F77EF
:101BF00002C084B58F7D84BD08958091B0008F7739
:101C000003C08091B0008F7D8093B0000895CF9382
:101C1000DF9390E0FC01E557F54F2491FC01E1567C
:101C2000F54F8491882349F190E0880F991FFC01BA
:101C3000E354F54FA591B4918D54954FFC01C59196
:101C4000D4919FB7611108C0F8948C91209582239C
:101C50008C93888182230AC0623051F4F8948C916D
:101C6000322F309583238C938881822B888304C004
:101C7000F8948C91822B8C939FBFDF91CF91089524
:101C80000F931F93CF93DF931F92CDB7DEB7282F0B
:101C900030E0F901E958F54F8491F901E557F54F26
:101CA0001491F901E156F54F04910023C9F08823FE
:101CB00021F069830E94DE0D6981E02FF0E0EE0FD4
:101CC000FF1FED54F54FA591B4919FB7F8948C91F7
:101CD000611103C01095812301C0812B8C939FBF9C
:101CE0000F90DF91CF911F910F910895CF92DF92C6
:101CF000EF92FF920F931F93CF93DF936C017A01C2
:101D0000EB01E60EF71E00E010E0CE15DF0561F0F6
:101D10006991D601ED91FC910190F081E02DC60111
:101D20000995080F191FF1CFC801DF91CF911F91BD
:101D30000F91FF90EF90DF90CF900895611571059E
:101D400081F0DB010D900020E9F7AD014150510910
:101D5000461B570BDC01ED91FC910280F381E02DD5
:101D6000099480E090E00895EF92FF920F931F9303
:101D7000CF93DF938C01FB01C0E0D0E064917F0141
:101D80008FEFE81AF80A662361F0D801ED91FC9113
:101D90000190F081E02DC8010995C80FD91FF70106
:101DA000EDCFCE01DF91CF911F910F91FF90EF907A
:101DB00008950C949E0EDC01ED91FC910190F08150
:101DC000E02D09940F931F93CF93DF93EC016DE007
:101DD0000E94DB0E8C016AE0CE010E94DB0E800FB8
:101DE000911FDF91CF911F910F9108950F931F9332
:101DF000CF93DF93EC010E94B40E8C01CE010E94C0
:101E0000E20E800F911FDF91CF911F910F910895E6
:101E10008F929F92AF92BF92CF92DF92EF92FF92FA
:101E20000F931F93CF93DF93CDB7DEB7A1970FB674
:101E3000F894DEBF0FBECDBF7C01C42EE52FCB01D1
:101E4000D22E19A221E02D1510F02AE0D22E8E01FB
:101E50000F5D1F4F8D2C912CA12CB12C6C2D7E2F42
:101E6000A50194010E94B4208C2DD29E80191124CA
:101E7000015011098A3014F4805D01C0895CF801B9
:101E80008083211531054105510521F0C22EE32F34
:101E9000CA01E4CFB801C7010E949E0EA1960FB6F9
:101EA000F894DEBF0FBECDBFDF91CF911F910F9190
:101EB000FF90EF90DF90CF90BF90AF909F908F906A
:101EC0000895CF92DF92EF92FF920F931F93CF93DB
:101ED000DF93EC016A017B012115310579F4E8817A
:101EE000F9810190F081E02D642FDF91CF911F9156
:101EF0000F91FF90EF90DF90CF9009942A30310539
:101F0000E9F477FF1AC06DE20E94DB0E8C014427D2
:101F10005527BA014C195D096E097F092AE0CE01E7
:101F20000E94080F800F911FDF91CF911F910F9199
:101F3000FF90EF90DF90CF9008952AE0B701A601BF
:101F4000CE01DF91CF911F910F91FF90EF90DF9025
:101F5000CF900C94080F2115310541F4DC01ED916F
:101F6000FC910190F081E02D642F09940C94080FEE
:101F70009A01462F50E060E070E00C94AB0F4F9256
:101F80005F926F927F928F929F92AF92BF92CF9209
:101F9000DF92EF92FF920F931F93CF93DF93EC01A9
:101FA0006A017B01B22E9A01AB01C701B6010E9402
:101FB0009B20882319F06DE071E027C026013701CE
:101FC000E89477F82FEF3FEF4FE75FE7C301B201E7
:101FD0000E949B2081110DC02FEF3FEF4FE75FE77D
:101FE000C301B2010E94741E18161CF461E171E075
:101FF0000CC02FEF3FEF4FE75FE4C701B6010E942F
:10200000E81F1816ACF465E171E0CE01DF91CF91C5
:102010001F910F91FF90EF90DF90CF90BF90AF9006
:102020009F908F907F906F905F904F900C949E0E3A
:102030002FEF3FEF4FE75FECC701B6010E94741E20
:1020400087FDE1CF20E030E0A901C701B6010E9481
:10205000741E87FF0AC06DE2CE010E94DB0E8C0168
:10206000F7FAF094F7F8F09402C000E010E0A12C29
:1020700060E070E080E09FE3AB1441F020E030E0EE
:1020800040E251E40E94781EA394F6CF9B01AC017C
:10209000C701B6010E94AE1D6B017C010E94E51EC6
:1020A0002B013C010E94111F9B01AC01C701B6012D
:1020B0000E94AD1D6B017C012AE0B301A201CE019B
:1020C0000E94080F080F191FBB2039F069E171E069
:1020D000CE010E949E0E080F191F7B2C772041F124
:1020E00020E030E040E251E4C701B6010E94F31F56
:1020F0006B017C010E94E01E4B01AA2497FCA09476
:10210000BA2C2AE030E0B501A401CE010E94610F93
:10211000080F191FC501B4010E94131F9B01AC01D8
:10212000C701B6010E94AD1D6B017C017A94D6CF28
:10213000C801DF91CF911F910F91FF90EF90DF9039
:10214000CF90BF90AF909F908F907F906F905F9057
:102150004F9008950C94BF0F0F931F93CF93DF936D
:10216000EC010E94BF0F8C01CE010E94E20E800F95
:10217000911FDF91CF911F910F9108950E94A30DA0
:102180000E94C20BC7E9D1E10E94740A2097E1F3D3
:102190000E949711F9CFFC0124853585F901E05C97
:1021A000FF4F80819181329620813181821B930B78
:1021B0008F7399270895FC0184859585FC01E05C67
:1021C000FF4F408151813296208131814217530760
:1021D00041F00190F081E02DE80FF91F808190E03F
:1021E00008958FEF9FEF0895FC0184859585FC018C
:1021F000E05CFF4F4081518132962081318142174E
:10220000530779F0A081B181A80FB91F8C9120816B
:1022100031812F5F3F4F2F7333273183208390E02D
:1022200008958FEF9FEF0895FC0181A1882329F085
:10223000A489B5898C9186FFFBCF11A20895CF9315
:10224000DF93FC0126853785D901A05CBF4F8D91B6
:102250009C91119701968F739927E901CE5BDF4F0F
:102260004881598184179507D9F30D90BC91A02D11
:10227000A20FB31F6C93A685B785A05CBF4F1196C4
:102280009C938E93A689B7892C9181E090E0078C6E
:1022900002C0880F991F0A94E2F7282B2C9381E043
:1022A00081A30488F589E02D80818064808381E0AA
:1022B00090E0DF91CF91089508951F920F920FB68D
:1022C0000F9211242F933F934F938F939F93EF93EC
:1022D000FF938091C00082FD1CC04091C600809198
:1022E00085029091860201968F739927209187022B
:1022F000309188028217930771F0E0918502F09186
:102300008602EB5BFD4F40839093860280938502AB
:1023100002C08091C600FF91EF919F918F914F91E4
:102320003F912F910F900FBE0F901F9018958FED3A
:1023300091E00E94CB10892B11F00C945C11089550
:102340001F920F920FB60F9211242F933F938F93EA
:102350009F93EF93FF93209141023091420280912D
:102360004302909144022817390731F48091C1004B
:102370008F7D8093C10014C0E0914302F09144022C
:10238000EF5FFD4F208180914302909144020196BE
:102390008F73992790934402809343022093C60041
:1023A000FF91EF919F918F913F912F910F900FBED1
:1023B0000F901F901895CF92DF92EF92FF92CF93DC
:1023C000DF93EC016A017B01411581EE580761053D
:1023D0007105F9F0EC89FD8981E090E008A002C068
:1023E000880F991F0A94E2F7808360E079E08DE31B
:1023F00090E0A70196010E94B420215031094109C3
:1024000051095695479537952795211580E138074D
:1024100098F0EC89FD89108260E874E88EE190E024
:10242000A70196010E94B4202150310941095109A8
:102430005695479537952795E889F9893083EA8934
:10244000FB89208319A2EE89FF89408181E090E019
:102450009C010C8C02C0220F331F0A94E2F7422B1E
:102460004083EE89FF8940819C010D8C02C0220FC0
:10247000331F0A94E2F7422B4083EE89FF894081A3
:102480009C010E8C02C0220F331F0A94E2F7422BEC
:102490004083EE89FF8920810F8C02C0880F991F2D
:1024A0000A94E2F7809582238083DF91CF91FF9099
:1024B000EF90DF90CF90089581E008951092E201AF
:1024C0001092E10188EE93E0A0E0B0E08093E30198
:1024D0009093E401A093E501B093E6018FE191E0D0
:1024E0009093E0018093DF0185E492E09093EC010A
:1024F0008093EB0181E092E09093EE018093ED01F7
:1025000085EC90E09093F0018093EF0184EC90E0F3
:102510009093F2018093F10180EC90E09093F401AC
:102520008093F30181EC90E09093F6018093F501A4
:1025300082EC90E09093F8018093F70186EC90E0B4
:102540009093FA018093F90184E08093FB0183E08A
:102550008093FC0187E08093FD0185E08093FE017C
:1025600081E08093FF0108958091B90290E020916D
:10257000BA02821B910908952091BA028091B90292
:10258000281750F4E22FF0E0E554FD4F808190E0F1
:102590002F5F2093BA0208958FEF9FEF0895E09187
:1025A000BA028091B902E81730F4F0E0E554FD4F2B
:1025B000808190E008958FEF9FEF08950895CF9266
:1025C000DF92EF92FF920F931F93CF93DF937C01E3
:1025D000CB018A0120919502222389F0EB016B0146
:1025E000C40ED51ECC15DD0569F06991D701ED91BA
:1025F000FC910190F081E02DC7010995F3CF642F84
:102600000E94381AC801DF91CF911F910F91FF905E
:10261000EF90DF90CF900895CF93DF931F92CDB7C7
:10262000DEB76983209195022223D1F02091960292
:10263000203240F021E030E0FC013383228380E04F
:1026400090E015C080919702E82FF0E0E856FD4F2A
:10265000998190838F5F809397028093960205C043
:1026600061E0CE0101960E94381A81E090E00F905F
:10267000DF91CF910895FC011382128248EE53E05E
:1026800060E070E044835583668377838FE291E056
:102690009183808308951092BA021092B902109229
:1026A0009702109296020C948319862F413208F0FB
:1026B00040E26BEB72E00E94A1191092BA02809383
:1026C000B902089521E00C94551381E0809395029E
:1026D0006093B802109297021092960208950F9399
:1026E000062F21E04091960268E972E08091B802DD
:1026F0000E94E5191092970210929602109295028C
:102700000F91089561E00C946F1389E892E00C94A6
:102710003B1328E6FC0120830895462F69E1FC0164
:1027200080810C94C71B0F93062F23E045E06AE1DC
:10273000FC0180810E944E1D0F9108950F93062F7A
:1027400023E042E06AE1FC0180810E944E1D0F916E
:1027500008950F93062F22E044E06BE1FC01808195
:102760000E944E1D0F9108950F93062F22E044E022
:102770006CE1FC0180810E944E1D0F910895462F4F
:102780006FE1FC0180810C94C71B462F60E2FC01C5
:1027900080810C94C71B462F61E2FC0180810C9460
:1027A000C71B462F62E2FC0180810C94C71B64307A
:1027B00048F4262F220F260F2B5D622FFC0180810B
:1027C0000C94C71B0895462F68E3FC0180810C948C
:1027D000C71BCF93DF93EC012091060130910701D5
:1027E000AC014F5F5F4F6AE388810E94D41C8981EE
:1027F000DF91CF910895262F46E06AE6FC018081A3
:102800000C941B1D262F45E06AE6FC0180810C9488
:102810001B1D21E042E06AE6FC0180810C941B1D37
:1028200021E041E06AE6FC0180810C941B1D21E05F
:1028300047E06BE6FC0180810C941B1D262F46E0CF
:102840006BE6FC0180810C941B1D0F93062F23E087
:1028500042E06BE6FC0180810E944E1D0F910895BD
:10286000CF93DF93EC0161E00E94251460E0CE017C
:102870000E94A91360E0CE010E94B41360E0CE0173
:10288000DF91CF910C941E140F931F93CF93DF937E
:10289000EC0100910601109107019C012F5F3F4F51
:1028A00042E062E788810E94271C898190E0982F8E
:1028B00088272A81822BDF91CF911F910F91089554
:1028C0000F931F939B01442351F000910601109137
:1028D000070164E7FC0180810E94271C02C0FB0104
:1028E00010821F910F910895EF92FF920F931F9303
:1028F000CF93DF93EC01E0900601F09007018C018B
:102900000F5F1F4F26E046E065E788810E94DE1CCE
:102910008981DF91CF911F910F91FF90EF900895E2
:102920000E94741491E0843309F090E0892F089597
:10293000262F40E060E0FC0180810C941B1DEF928B
:10294000FF920F931F93CF93DF93EC01E09006016A
:10295000F09007018C010F5F1F4F26E046E060E01A
:1029600088810E94DE1C8981DF91CF911F910F9198
:10297000FF90EF9008950F93062F26E046E060E069
:10298000FC0180810E944E1D0F910895EF92FF92ED
:102990000F931F93CF93DF93EC01E0900601F0902B
:1029A00007018C010F5F1F4F26E046E061E0888140
:1029B0000E94DE1C8981DF91CF911F910F91FF90C2
:1029C000EF9008950F93062F26E046E061E0FC01AA
:1029D00080810E944E1D0F910895EF92FF920F93F8
:1029E0001F93CF93DF93EC01E0900601F090070175
:1029F0008C010F5F1F4F26E046E062E088810E9455
:102A0000DE1C8981DF91CF911F910F91FF90EF9094
:102A100008950F93062F26E046E062E0FC018081D6
:102A20000E944E1D0F910895AB016AE0FC01808168
:102A30000C94151CAB0163E1FC0180810C94151C06
:102A4000AB0165E1FC0180810C94151CAB0167E1D1
:102A5000FC0180810C94151C262F47E06AE6FC01DE
:102A600080810C941B1D21E043E06AE6FC0180811B
:102A70000C941B1D6F712111606241116064462F1F
:102A80006DE6FC0180810C94C71B462F6EE6FC01AD
:102A900080810C94C71B5F926F927F928F929F925E
:102AA000AF92BF92CF92DF92EF92FF920F931F935C
:102AB000CF93DF937C015B016A01622E702E20E0D0
:102AC00040E0662D0E943A15602FC7010E9445150F
:102AD000C0E0D0E0812C99249394CC15DD05A8F5B5
:102AE000CE014096C816D90618F45C2C5C1A02C0B8
:102AF000A0E15A2E252D30E0C401871991098217D3
:102B0000930714F4572C519400910601109107017A
:102B100095012C0F3D1F452D6FE6F70180810E9426
:102B2000271CC50DD11D750CCC15DD05B0F6711037
:102B300001C0639420E040E0662DC7010E943A1571
:102B4000672DC7010E944515C8CFDF91CF911F9116
:102B50000F91FF90EF90DF90CF90BF90AF909F903C
:102B60008F907F906F905F9008952F923F924F9239
:102B70005F926F927F928F929F92AF92BF92CF920D
:102B8000DF92EF92FF920F931F93CF93DF9300D0CA
:102B900000D01F92CDB7DEB79D838C837B836A8381
:102BA0004A01322ED02EE98220E040E0632D0E94BF
:102BB0003A15602F8C819D810E944515E980EE2099
:102BC00029F080E190E00E945C185C01CC2039F093
:102BD00080E190E00E945C18582E292E02C0512CF2
:102BE000212CE12CF12CE814F90408F07AC0C7017B
:102BF00040968816990618F4482C4E1802C010E129
:102C0000412E242D30E080E091E08D19910982174A
:102C1000930714F44D2C4194EA81FB81EE0DFF1DC6
:102C2000CC2059F0852DA52DB22D9A2F981B9415E7
:102C300030F494919D933196F8CF5E2E2F2E252D52
:102C4000322D442D6FE6AC81BD818C910E948E1B8C
:102C5000642C712CB981BB2369F1A114B10451F129
:102C600020E040E0632D8C819D810E943A156D2DFE
:102C70008C819D810E9445150091060110910701EC
:102C80009501442D6FE6EC81FD8180810E94271C17
:102C9000A301B501852D922D0E94971D892B51F01E
:102CA000C5010E94F418CC2049F1852D922D0E9477
:102CB000F41824C0E60CF71CD40CE814F90408F04E
:102CC00092CFD11001C0339420E040E0632D8C817D
:102CD0009D810E943A156D2D8C819D810E94451524
:102CE00082CFF981FF2319F0C5010E94F418CC208E
:102CF00039F0852D922D0E94F41802C080E001C0A9
:102D000081E00F900F900F900F900F90DF91CF9177
:102D10001F910F91FF90EF90DF90CF90BF90AF90F9
:102D20009F908F907F906F905F904F903F902F90EB
:102D30000895CF92EF920F93CC24C3940E94B515BF
:102D40000F91EF90CF9008952F923F924F925F9204
:102D50006F927F928F929F92AF92BF92CF92DF92AB
:102D6000EF92FF920F931F93CF93DF9300D01F92A8
:102D7000CDB7DEB74C017B836A833A01D22E222382
:102D800039F088E090E00E945C18182FF92E02C0FC
:102D900010E0F12C212C312C2614370408F051C0FE
:102DA000EA81FB81E20DF31DC10103965C01DD2088
:102DB000C1F04491F10131968A819B81E80FF91F9E
:102DC0000491F1013296E80FF91F5490511044C05C
:102DD000F4E02F0E311CEA81FB81EA0DFB1D84918A
:102DE0000DC0408101815280EA81FB81E80FF91F0B
:102DF00051100DC084E0280E311C80818130D1F447
:102E000042E368E3F40180810E94C71BC5CF1E2FF7
:102E1000FF2E452C512CC12CEE24E394242FA2012B
:102E2000612F7F2DC4010E94B51512012A0C3B1C95
:102E30008111B2CFDD2061F0812F9F2D0E94F41807
:102E400007C0DD2039F0812F9F2D0E94F41802C0A9
:102E500080E024C081E022C0252C312CF2E0F51561
:102E600048F4B101812F9F2D49830E947317182FB9
:102E7000F92E4981812F9F2DA0E0B0E02A813B816E
:102E80002A0D3B1DA215B30520F6F901EA0FFB1F21
:102E90005491FC015193CF011196F4CF0F900F90F4
:102EA0000F90DF91CF911F910F91FF90EF90DF90E6
:102EB000CF90BF90AF909F908F907F906F905F90DA
:102EC0004F903F902F90089521E00C94A416462F28
:102ED00060E7FC0180810C94C71B462F61E7FC0171
:102EE00080810C94C71B6F927F928F929F92AF92BA
:102EF000BF92CF92DF92EF92FF920F931F93CF93E7
:102F0000DF93EC01CB01209781F4DF91CF911F91EA
:102F10000F91FF90EF90DF90CF90BF90AF909F9078
:102F20008F907F906F900C945C18FE01E60FF71F56
:102F30009E0122503109E217F30708F4ACC0D90111
:102F40000D911C91119706171707B8F00530110560
:102F500008F49FC0A801445051094617570708F4C8
:102F600098C002501109061B170B019311936D9322
:102F70007C93CF010E94F4188CC05B01A01AB10AA7
:102F80004E01800E911EA0914B03B0914C03612C19
:102F9000712C60E070E0109709F449C0A815B905DC
:102FA000C9F5ED90FC901197670142E0C40ED11C69
:102FB000CA14DB0478F147018A189B08640142E0D7
:102FC000C40ED11C1296BC9012971396AC91B5E02A
:102FD000CB16D10440F0B282A38391828082D901C2
:102FE0008D939C9309C00E5F1F4F0E0D1F1DF9019D
:102FF00011830083EB2DFA2F6115710531F0DB0190
:103000001396FC93EE93129744C0F0934C03E09315
:103010004B033FC06D917C9111976616770608F4BB
:103020003B01BD0112960D90BC91A02DB4CF6091D3
:10303000490370914A0368157905E9F46816790621
:10304000D0F440910001509101014115510541F426
:103050004DB75EB76091040170910501461B570B97
:10306000E417F507C0F4F0934A03E0934903F9012C
:10307000918380830EC00E945C187C01009759F0F8
:10308000A801BE010E94A41DCE010E94F418C70130
:1030900004C0CE0102C080E090E0DF91CF911F918B
:1030A0000F91FF90EF90DF90CF90BF90AF909F90E7
:1030B0008F907F906F900895CF93DF93823091052A
:1030C00010F482E090E0E0914B03F0914C0320E09B
:1030D00030E0A0E0B0E0309739F1408151814817ED
:1030E0005907B8F04817590771F4828193811097F6
:1030F00029F013969C938E9312972CC090934C03B7
:1031000080934B0327C02115310531F04217530737
:1031100018F0A901DB0101C0EF019A01BD01DF0137
:103120000280F381E02DD7CF21153105F9F0281B5E
:10313000390B2430310580F48A819B81611571053A
:1031400021F0FB019383828304C090934C0380930E
:103150004B03FE01329644C0FE01E20FF31F819340
:10316000919322503109398328833AC02091490331
:1031700030914A03232B41F4209102013091030145
:1031800030934A03209349032091000130910101BB
:103190002115310541F42DB73EB7409104015091FE
:1031A0000501241B350BE0914903F0914A03E21716
:1031B000F307A0F42E1B3F0B2817390778F0AC015A
:1031C0004E5F5F4F2417350748F04E0F5F1F509337
:1031D0004A03409349038193919302C0E0E0F0E0F9
:1031E000CF01DF91CF910895CF93DF93009709F43A
:1031F00087C0FC01329713821282C0914B03D09199
:103200004C03209781F420813181280F391F809150
:10321000490390914A038217930779F5F0934A0383
:10322000E09349036DC0DE0120E030E0AE17BF0738
:1032300050F412964D915C9113979D0141155105E3
:1032400009F1DA01F3CFB383A28340815181840F66
:10325000951F8A179B0771F48D919C911197840F8C
:10326000951F02969183808312968D919C9113975E
:10327000938382832115310529F4F0934C03E09365
:103280004B033EC0D9011396FC93EE9312974D91D8
:103290005D91A40FB51FEA17FB0779F48081918136
:1032A000840F951F0296D90111969C938E9382816B
:1032B000938113969C938E931297E0E0F0E08A81BD
:1032C0009B81009719F0FE01EC01F9CFCE01029627
:1032D00028813981820F931F2091490330914A033D
:1032E0002817390769F4309729F410924C0310928B
:1032F0004B0302C013821282D0934A03C093490346
:10330000DF91CF9108951092480381E080934603A6
:103310001092450361E082E10E94400E61E083E18A
:103320000E94400EE9EBF0E080818E7F80838081F7
:103330008D7F808388E48093B80085E48093BC000F
:103340000895413208F03FC0909148039111FCCF9D
:1033500091E090934803209346032FEF2093DB02E4
:1033600010922003240F20931F0390934703909102
:103370004703880F892B8093470380914503813051
:1033800041F410924503809147038093BB0085EC84
:1033900001C085EE8093BC00809148038130E1F349
:1033A00080912003841710F44091200321E233E040
:1033B000FB01D9018A2F821B841718F48D91819308
:1033C000F9CF842F089580E008950F93413208F0DB
:1033D00046C0909148039111FCCF92E0909348032E
:1033E000009346039FEF9093DB02109220034093DB
:1033F0001F03FB0161E273E0DB019A2F961B941718
:1034000018F491919D93F9CF10924703909147033F
:10341000880F892B8093470380914503813041F4C5
:1034200010924503809147038093BB0085EC01C057
:1034300085EE8093BC00222321F0809148038230E6
:10344000E1F38091DB028F3F61F08091DB028032FB
:1034500051F08091DB02803341F483E007C081E0CA
:1034600005C080E003C082E001C084E00F910895B0
:10347000613298F420914803243089F46093FD026E
:10348000FC018FEF92E0DC012A2F281B261718F48D
:1034900021912D93F9CF80E0089581E0089582E095
:1034A000089585ED8093BC008091BC0084FDFCCF25
:1034B00010924803089585EC8093BC001092480355
:1034C00008951F920F920FB60F9211242F933F93DE
:1034D0004F935F936F937F938F939F93AF93BF931C
:1034E000EF93FF938091B900887F803609F49CC0E8
:1034F00068F5883209F45BC090F4803109F454C057
:1035000038F4882309F4F5C0883009F44DC0F5C0BB
:10351000883109F44CC0803209F45DC0EEC08034BB
:1035200009F468C048F4803309F455C0883309F0C1
:10353000E4C08093DB02A8C0803509F44FC0883511
:1035400009F45DC0883409F0D8C0D5C0883909F4C1
:10355000C6C0A8F4883709F467C038F4883609F47F
:1035600063C0803709F460C0C8C0883809F4B7C0A8
:10357000803909F45FC0803809F0BFC05BC0803B70
:1035800009F485C038F4803A09F466C0883A09F431
:103590007EC0B3C0803C09F4A6C0883C09F4A3C037
:1035A000883B09F489C0A9C08091470310C090915D
:1035B000200380911F03981770F5E091200381E0AC
:1035C0008E0F80932003F0E0EF5DFC4F80818093AD
:1035D000BB0085EC85C08093DB028DC0E0912003A9
:1035E00081E08E0F809320038091BB00F0E0EF5DBF
:1035F000FC4F80839091200380911F036DC0E09168
:10360000200381E08E0F809320038091BB00F0E0C7
:10361000EF5DFC4F80838091460381116CC081E097
:103620008093450384EA60C083E08093480310924E
:10363000DC02CFCF8091DC02803208F050C0E091F4
:10364000DC0281E08E0F8093DC028091BB00F0E011
:10365000E352FD4F8083BDCF8091DC02803230F495
:10366000E091DC02F0E0E352FD4F10820E94511A1B
:103670006091DC0270E0E0914103F09142038DED36
:1036800092E009951092DC020E945B1A36C084E039
:10369000809348031092FE021092FD02E0914303D2
:1036A000F091440309958091FD02811105C081E0EC
:1036B0008093FD021092FF02E091FE0281E08E0FE6
:1036C0008093FE02F0E0E150FD4F80818093BB00CB
:1036D0009091FE028091FD02981708F47ACF85E858
:1036E0008093BC000AC085EC8093BC001092480314
:1036F00004C01092DB020E94511AFF91EF91BF911A
:10370000AF919F918F917F916F915F914F913F9179
:103710002F910F900FBE0F901F901895EF92FF9270
:103720000F931F93CF93DF9300D0CDB7DEB7062F53
:10373000142F682F89E892E029833A830E94651349
:10374000602F89E892E00E940C132981022FE22E5B
:103750003A81F32E8E2D801B811740F4F701619181
:103760007F0189E892E00E940C13F4CF89E892E08F
:103770000E94821391E0811190E0892F0F900F90A9
:10378000DF91CF911F910F91FF90EF900895CF930C
:10379000DF931F92CDB7DEB749839E012F5F3F4F66
:1037A00041E00E948E1B0F90DF91CF910895DF9230
:1037B000EF92FF920F931F93CF93DF93C62F042FA7
:1037C0007901682F89E892E00E9465136C2F89E8DF
:1037D00092E00E940C1310E0000F111FD12CCD2D90
:1037E000D0E0C017D1078CF4CC0FDD1FCE0DDF1D4C
:1037F000698189E892E00E940C13688189E892E06F
:103800000E940C13D394D394EACF89E892E00E94EB
:10381000821391E0811190E0892FDF91CF911F9168
:103820000F91FF90EF90DF900895CF93DF9300D03A
:10383000CDB7DEB75A8349839E012F5F3F4F41E0EA
:103840000E94D71B0F900F90DF91CF9108953F9268
:103850004F925F926F927F928F929F92AF92BF92A0
:10386000CF92DF92EF92FF920F931F93CF93DF934C
:1038700000D000D000D0CDB7DEB7682E562E742E03
:103880003A8329830E944E0D6B017C01312C412C1F
:10389000872D90E09C838B834801A12CB12C371499
:1038A000B0F5662D89E892E00E946513652D89E8E0
:1038B00092E00E940C1389E892E00E948213662D28
:1038C00089E892E00E9465134B815C81431951099C
:1038D0004132510514F040E250E0662D89E892E053
:1038E0000E94621389E892E00E94B412892B59F178
:1038F0000115110579F10E944E0D6C197D098E0993
:103900009F09681579058A059B0520F11CC00115E2
:10391000110589F10E944E0D6C197D098E099F09D0
:1039200020E030E0601771078207930720F1872DB0
:1039300090E0242D332727FD309528173907DCF434
:1039400044244A9418C0872D90E2971508F480E229
:10395000380EA5CFE981FA81E40DF11D47FCFA95F7
:10396000FE83ED8389E892E00E94BC12ED81FE8126
:1039700080834394B7CF842D26960FB6F894DEBF8C
:103980000FBECDBFDF91CF911F910F91FF90EF90B0
:10399000DF90CF90BF90AF909F908F907F906F906F
:1039A0005F904F903F9008950F931F9389019A0164
:1039B00041E00E94271C1F910F910895CF92DF9242
:1039C000EF92FF920F931F93CF93DF931F92CDB788
:1039D000DEB7C42ED22E9701AE014F5F5F4F0E941B
:1039E000D41C8823F1F04C2D50E04D1951094F5F44
:1039F0005F4F61E070E002C0660F771FDA94E2F774
:103A000061507109042E01C0660F0A94EAF72981FA
:103A1000262330E002C0359527954A95E2F7F80154
:103A200020830F90DF91CF911F910F91FF90EF9026
:103A3000DF90CF900895EF92FF920F931F93CF9353
:103A4000DF931F92CDB7DEB7182F062FF42EE22E8C
:103A50002091060130910701AE014F5F5F4F0E9438
:103A6000D41C898121E030E00F2C01C0220F0A9480
:103A7000EAF7EE2019F0482F422B03C0422F409561
:103A800048234983602F812F0E94C71B0F90DF912D
:103A9000CF911F910F91FF90EF900895DF92EF92D9
:103AA000FF920F931F93CF93DF931F92CDB7DEB793
:103AB000F82EE62ED42E122F209106013091070108
:103AC000AE014F5F5F4F0E94D41C882319F14D2D2A
:103AD00050E0411B51094F5F5F4FE1E0F0E002C051
:103AE000EE0FFF1F1A95E2F73197042E01C0EE0F7B
:103AF0000A94EAF701C0000F4A95EAF74E2F409565
:103B000089814823E0234E2B49836E2D8F2D0E94FF
:103B1000C71B01C080E00F90DF91CF911F910F91E3
:103B2000FF90EF90DF900895F8940C94DC20FB0157
:103B3000DC0104C08D910190801921F44150504066
:103B4000C8F7881B990B0895FB01DC0102C00190A6
:103B50000D9241505040D8F708955058BB27AA27DE
:103B60000ED0FCC1EDD130F0F2D120F031F49F3F06
:103B700011F41EF4BDC10EF4E095E7FBB3C1E92FCB
:103B8000FED180F3BA17620773078407950718F010
:103B900071F49EF516C20EF4E0950B2EBA2FA02DEF
:103BA0000B01B90190010C01CA01A0011124FF27EA
:103BB000591B99F0593F50F4503E68F11A16F040E5
:103BC000A22F232F342F4427585FF3CF46953795E4
:103BD0002795A795F0405395C9F77EF41F16BA0BA9
:103BE000620B730B840BBAF09150A1F0FF0FBB1F57
:103BF000661F771F881FC2F70EC0BA0F621F731FA0
:103C0000841F48F4879577956795B795F7959E3FFC
:103C100008F0B3CF9395880F08F09927EE0F97958A
:103C2000879508958DD158F080E891E009F49EEFD2
:103C30008ED128F040E851E059F45EEF09C058C138
:103C4000C0C1E92FE0789BD168F3092E052AC1F3A2
:103C5000261737074807590738F00E2E07F8E025D2
:103C600069F0E025E0640AC0EF6307F8009407FA02
:103C7000DB01B9019D01DC01CA01AD01EF9347D021
:103C80006DD10AD05F91552331F02BED3FE049E42F
:103C900050FD49EC63CF0895DF93DD27B92FBF773F
:103CA00040E85FE31616170648075B0710F4D92FA4
:103CB00093D19F938F937F936F933AD2E8E6F0E08E
:103CC0001AD14CD12F913F914F915F9198D1DD2323
:103CD00049F09058A2EA2AED3FE049EC5FE3D07842
:103CE0005D274DDFDF913AC1D9D008F481E0089516
:103CF0000CD034C12CD140F023D130F021F45F3FFF
:103D000019F0F0C051115EC1F3C039D198F3992375
:103D1000C9F35523B1F3951B550BBB27AA2762178F
:103D20007307840738F09F5F5F4F220F331F441FD4
:103D3000AA1FA9F333D00E2E3AF0E0E830D091500C
:103D40005040E695001CCAF729D0FE2F27D0660FF9
:103D5000771F881FBB1F261737074807AB07B0E838
:103D600009F0BB0B802DBF01FF2793585F4F2AF04E
:103D70009E3F510568F0B6C025C15F3FECF3983E09
:103D8000DCF3869577956795B795F7959F5FC9F7AB
:103D9000880F911D9695879597F90895E1E0660F34
:103DA000771F881FBB1F621773078407BA0720F0AD
:103DB000621B730B840BBA0BEE1F88F7E095089516
:103DC00004D06894B111FEC00895E1D088F09F57E7
:103DD00090F0B92F9927B751A0F0D1F0660F771F57
:103DE000881F991F1AF0BA95C9F712C0B13081F037
:103DF000E8D0B1E00895E5C0672F782F8827B85F35
:103E000039F0B93FCCF3869577956795B395D9F797
:103E10003EF490958095709561957F4F8F4F9F4FA1
:103E20000895E89409C097FB3EF4909580957095AD
:103E300061957F4F8F4F9F4F9923A9F0F92F96E9F6
:103E4000BB279395F695879577956795B795F1116B
:103E5000F8CFFAF4BB0F11F460FF1BC06F5F7F4F08
:103E60008F4F9F4F16C0882311F096E911C077231A
:103E700021F09EE8872F762F05C0662371F096E823
:103E8000862F70E060E02AF09A95660F771F881FF2
:103E9000DAF7880F9695879597F90895990F000896
:103EA000550FAA0BE0E8FEEF16161706E807F9070C
:103EB000C0F012161306E407F50798F0621B730BA7
:103EC000840B950B39F40A2661F0232B242B252B28
:103ED00021F408950A2609F4A140A6958FEF811DCB
:103EE000811D089597F99F6780E870E060E008956C
:103EF0009FEF80EC0895DF93CF931F930F93FF9272
:103F0000EF92DF927B018C01689405C0DA2EEF01FD
:103F100076D0FE01E894A591259135914591559172
:103F2000AEF3EF012CDEFE019701A801DA9479F7D8
:103F3000DF90EF90FF900F911F91CF91DF91089547
:103F400000240A9416161706180609060895002478
:103F50000A9412161306140605060895092E0394F2
:103F6000000C11F4882352F0BB0F40F4BF2B11F466
:103F700060FF04C06F5F7F4F8F4F9F4F089557FDC5
:103F80009058440F551F59F05F3F71F04795880FC7
:103F900097FB991F61F09F3F79F08795089512165E
:103FA00013061406551FF2CF4695F1DF08C016160A
:103FB00017061806991FF1CF8695710561050894BB
:103FC0000895E894BB2766277727CB0197F90895D2
:103FD00065DF08F48FEF08959B01AC0160E070E0AD
:103FE00080E89FE385CE0BD0B9CFAADF28F0AFDF02
:103FF00018F0952309F076CF7BCF1124E3CFBFDFF4
:10400000A0F3959FD1F3950F50E0551F629FF001EB
:10401000729FBB27F00DB11D639FAA27F00DB11D44
:10402000AA1F649F6627B00DA11D661F829F2227CD
:10403000B00DA11D621F739FB00DA11D621F839F54
:10404000A00D611D221F749F3327A00D611D231F2A
:10405000849F600D211D822F762F6A2F11249F5778
:1040600050408AF0E1F088234AF0EE0FFF1FBB1F9B
:10407000661F771F881F91505040A9F79E3F51053A
:1040800070F030CF9FCF5F3FECF3983EDCF3869526
:1040900077956795B795F795E7959F5FC1F7FE2BE5
:1040A000880F911D9695879597F9089511F40EF450
:1040B0001FCF45C06CDFD0F39923D9F3CEF39F57C0
:1040C000550B87FF4AD00024A0E640EA90018058B3
:1040D0005695979528F4805C660F771F881F20F00F
:1040E00026173707480730F4621B730B840B20290F
:1040F00031294A2BA69517940794202531254A2764
:1041000058F7660F771F881F20F0261737074807D4
:1041100030F4620B730B840B200D311D411DA095F3
:1041200081F7B901842F9158880F96958795089546
:104130009B01AC0158CFB2DE880B990B08959F3FCD
:1041400031F0915020F4879577956795B795880F52
:10415000911D9695879597F9089591505040660F57
:10416000771F881FD2F70895A1E21A2EAA1BBB1B46
:10417000FD010DC0AA1FBB1FEE1FFF1FA217B30733
:10418000E407F50720F0A21BB30BE40BF50B661F49
:10419000771F881F991F1A9469F76095709580950D
:1041A00090959B01AC01BD01CF010895EE0FFF1F5B
:0C41B0000590F491E02D0994F894FFCFE5
:1041BC0000004D038000E80379707209006E616E97
:1041CC0000696E66006F7666002E00000000001F0E
:1041DC0011760ECB10F410DB101411000000000C43
:0C41EC0013DF12B412BC12CF12DE12005E
:00000001FF
