:100000000C9471000C9499000C9499000C94990034
:100010000C9499000C9499000C9499000C949900FC
:100020000C9499000C9499000C9499000C949900EC
:100030000C9499000C9499000C9499000C949900DC
:100040000C94C9080C9499000C94AE040C94F1041F
:100050000C9499000C9499000C9499000C949900BC
:100060000C942C0A0C949900084AD73B3BCE016EA5
:1000700084BCBFFDC12F3D6C74319ABD56833DDAFF
:100080003D00C77F11BED9E4BB4C3E916BAAAABE0E
:10009000000000803F000000000700020100000394
:1000A0000406000000000000000001020408102007
:1000B00040800102040810200102040810200404FA
:1000C0000404040404040202020202020303030300
:1000D000030300000000250028002B000E02AD05E0
:1000E000D60611241FBECFEFD8E0DEBFCDBF12E091
:1000F000A0E0B1E0EAE2FDE102C005900D92AA3273
:10010000B107D9F723E0AAE2B2E001C01D92A33AF9
:10011000B207E1F710E0C2EED0E004C02297FE0182
:100120000E948F0ECC3DD107C9F70E940F040C949A
:10013000B80B0C9400008F929F92AF92BF92CF9217
:10014000DF92EF92FF920F931F93CF93DF93CDB780
:10015000DEB762970FB6F894DEBF0FBECDBF89A0A1
:100160009AA0ABA0BCA0CDA0DEA0EFA0F8A460E058
:1001700071E080E392E00E94500222E030E0B5019D
:10018000A40180E392E00E940D046EE071E080E340
:1001900092E00E94500222E030E0B701A60180E325
:1001A00092E00E940D046BE171E080E392E06296C0
:1001B0000FB6F894DEBF0FBECDBFDF91CF911F9178
:1001C0000F91FF90EF90DF90CF90BF90AF909F90F6
:1001D0008F900C946D02CF93DF9300D000D0CDB7F9
:1001E000DEB740E855E260E070E080E392E00E9414
:1001F0002C0568E271E080E392E00E946D028AEDD6
:1002000092E00E949A0664E471E080E392E00E942A
:100210006D02CE0101960E94E10689819A81AB812F
:10022000BC8180932C0290932D02A0932E02B09358
:100230002F026EE571E080E392E00E946D0246E6D7
:1002400056E666EA7FE38CE292E00E94090790930B
:100250002B0280932A02009751F0BC018CE292E0BD
:100260000E94CC07BC0180E392E00E946D026AE725
:1002700071E080E392E00E946D0260E08CE292E027
:100280000E94C50790932B0280932A02009751F099
:10029000BC018CE292E00E94CC07BC0180E392E0BA
:1002A0000E946D020F900F900F900F90DF91CF91F1
:1002B00008958F929F92AF92BF92CF92DF92EF926A
:1002C000FF920F931F93CF93DF93CDB7DEB7629763
:1002D0000FB6F894DEBF0FBECDBF8CE292E00E9455
:1002E00035082D873E874F87588B698B7A8B6CE258
:1002F00072E0CE0101960E94690829813A814B8102
:100300005C816D817E818F8198850E942F0C2CEEFF
:100310003FE24BE35DE30E94BC0B5B016C01162FD7
:100320000B2DF82EED2C20E030E0A9017B2D9D2D2A
:100330000E94820C87FF0EC02BED3FE049EC50E499
:100340006A2D7B2D8C2D9D2D0E94BC0B162F072F07
:10035000F82EE92E2BED3FE049EC50E4D801F701EF
:100360006B2F702F8F2F9E2D0E94F60D181684F480
:100370002BED3FE049EC50E4D801F7016B2F702FD3
:100380008F2F9E2D0E94BB0B162F072FF82EE92EC4
:1003900020E030E044E353E4D801F7016B2F702FE5
:1003A0008F2F9E2D0E94010E2BED3FE049E450E47B
:1003B0000E94860C9F938F937F936F93EF92FF928F
:1003C0000F931F9389809A80AB80BC80CD80DE80A4
:1003D000EF80F88409851A852B853C854D855E85DF
:1003E0006F85788989899A890E949B000FB6F89455
:1003F000DEBF0FBECDBF62960FB6F894DEBF0FBE54
:10040000CDBFDF91CF911F910F91FF90EF90DF90C3
:10041000CF90BF90AF909F908F9008958CE292E024
:100420000C94E106CF92DF92EF92FF920F931F930D
:10043000CF93DF936C017A01EB01E60EF71E00E02B
:1004400010E0CE15DF0561F06991D601ED91FC91C8
:100450000190F081E02DC6010995080F191FF1CF19
:10046000C801DF91CF911F910F91FF90EF90DF9026
:10047000CF9008956115710581F0DB010D9000208A
:10048000E9F7AD0141505109461B570BDC01ED91D5
:10049000FC910280F381E02D099480E090E00895C2
:1004A0000C943A02DC01ED91FC910190F081E02D79
:1004B00009940F931F93CF93DF93EC016DE00E949B
:1004C00052028C016AE0CE010E945202800F911FFD
:1004D000DF91CF911F910F9108950F931F93CF93A9
:1004E000DF93EC010E943A028C01CE010E94590276
:1004F000800F911FDF91CF911F910F9108958F92DF
:100500009F92AF92BF92CF92DF92EF92FF920F93A2
:100510001F93CF93DF93CDB7DEB7A1970FB6F894B3
:10052000DEBF0FBECDBF7C01C42EE52FCB01D22E86
:1005300019A221E02D1510F02AE0D22E8E010F5DB8
:100540001F4F8D2C912CA12CB12C6C2D7E2FA50131
:1005500094010E946B0E8C2DD29E801911240150A3
:1005600011098A3014F4805D01C0895CF801808330
:10057000211531054105510521F0C22EE32FCA0195
:10058000E4CFB801C7010E943A02A1960FB6F894D1
:10059000DEBF0FBECDBFDF91CF911F910F91FF90B6
:1005A000EF90DF90CF90BF90AF909F908F90089585
:1005B000CF92DF92EF92FF920F931F93CF93DF932F
:1005C000EC016A017B012115310579F4E881F9819B
:1005D0000190F081E02D642FDF91CF911F910F9159
:1005E000FF90EF90DF90CF9009942A303105E9F425
:1005F00077FF1AC06DE20E9452028C0144275527F2
:10060000BA014C195D096E097F092AE0CE010E94EA
:100610007F02800F911FDF91CF911F910F91FF906B
:10062000EF90DF90CF9008952AE0B701A601CE01A8
:10063000DF91CF911F910F91FF90EF90DF90CF90BE
:100640000C947F024F925F926F927F928F929F9253
:10065000AF92BF92CF92DF92EF92FF920F931F93D0
:10066000CF93DF93EC016A017B01B22E9A01AB01BB
:10067000C701B6010E94670E882319F061EA71E094
:1006800027C026013701E89477F82FEF3FEF4FE7B7
:100690005FE7C301B2010E94670E81110DC02FEF09
:1006A0003FEF4FE75FE7C301B2010E94820C1816CB
:1006B0001CF465EA71E00CC02FEF3FEF4FE75FE4F9
:1006C000C701B6010E94F60D1816ACF469EA71E094
:1006D000CE01DF91CF911F910F91FF90EF90DF90AE
:1006E000CF90BF90AF909F908F907F906F905F90D2
:1006F0004F900C943A022FEF3FEF4FE75FECC701AA
:10070000B6010E94820C87FDE1CF20E030E0A90114
:10071000C701B6010E94820C87FF0AC06DE2CE01BC
:100720000E9452028C01F7FAF094F7F8F09402C09C
:1007300000E010E0A12C60E070E080E09FE3AB14EB
:1007400041F020E030E040E251E40E94860CA394A6
:10075000F6CF9B01AC01C701B6010E94BC0B6B0137
:100760007C010E94F30C2B013C010E941F0D9B0198
:10077000AC01C701B6010E94BB0B6B017C012AE0F2
:10078000B301A201CE010E947F02080F191FBB20F6
:1007900039F062E471E0CE010E943A02080F191F9D
:1007A0007B2C772041F120E030E040E251E4C701AA
:1007B000B6010E94010E6B017C010E94EE0C4B0100
:1007C000AA2497FCA094BA2C2AE030E0B501A40139
:1007D000CE010E94D802080F191FC501B4010E9462
:1007E000210D9B01AC01C701B6010E94BB0B6B013F
:1007F0007C017A94D6CFC801DF91CF911F910F91E0
:10080000FF90EF90DF90CF90BF90AF909F908F9030
:100810007F906F905F904F9008950C9422030E94F8
:1008200013090E94EB00C8EED4E00E945901209702
:10083000E1F30E94E804F9CFFC0124853585F90134
:10084000E05CFF4F80819181329620813181821B53
:10085000930B8F7399270895FC0184859585FC017E
:10086000E05CFF4F408151813296208131814217F7
:10087000530741F00190F081E02DE80FF91F8081CE
:1008800090E008958FEF9FEF0895FC018485958592
:10089000FC01E05CFF4F4081518132962081318123
:1008A0004217530779F0A081B181A80FB91F8C912D
:1008B000208131812F5F3F4F2F7333273183208376
:1008C00090E008958FEF9FEF0895FC0181A18823A8
:1008D00029F0A489B5898C9186FFFBCF11A20895D8
:1008E000CF93DF93FC0126853785D901A05CBF4FEC
:1008F0008D919C91119701968F739927E901CE5B99
:10090000DF4F4881598184179507D9F30D90BC9129
:10091000A02DA20FB31F6C93A685B785A05CBF4F17
:1009200011969C938E93A689B7892C9181E090E0D3
:10093000078C02C0880F991F0A94E2F7282B2C938A
:1009400081E081A30488F589E02D80818064808323
:1009500081E090E0DF91CF91089508951F920F926A
:100960000FB60F9211242F933F934F938F939F9322
:10097000EF93FF938091C00082FD1CC04091C600A0
:100980008091D6029091D70201968F73992720917A
:10099000D8023091D9028217930771F0E091D60204
:1009A000F091D702EA56FD4F40839093D70280938F
:1009B000D60202C08091C600FF91EF919F918F9166
:1009C0004F913F912F910F900FBE0F901F90189550
:1009D00080E392E00E941C04892B11F00C94AD047A
:1009E00008951F920F920FB60F9211242F933F93E9
:1009F0008F939F93EF93FF932091920230919302F4
:100A000080919402909195022817390731F48091D2
:100A1000C1008F7D8093C10014C0E0919402F091D9
:100A20009502EE5AFD4F208180919402909195029B
:100A300001968F7399279093950280939402209347
:100A4000C600FF91EF919F918F913F912F910F9051
:100A50000FBE0F901F901895CF92DF92EF92FF92EA
:100A6000CF93DF93EC016A017B01411581EE5807BA
:100A700061057105F9F0EC89FD8981E090E008A03D
:100A800002C0880F991F0A94E2F7808360E079E042
:100A90008DE390E0A70196010E946B0E2150310971
:100AA000410951095695479537952795211580E1BC
:100AB000380798F0EC89FD89108260E874E88EE1CF
:100AC00090E0A70196010E946B0E21503109410967
:100AD00051095695479537952795E889F9893083C7
:100AE000EA89FB89208319A2EE89FF89408181E090
:100AF00090E09C010C8C02C0220F331F0A94E2F795
:100B0000422B4083EE89FF8940819C010D8C02C0FD
:100B1000220F331F0A94E2F7422B4083EE89FF89AC
:100B200040819C010E8C02C0220F331F0A94E2F711
:100B3000422B4083EE89FF8920810F8C02C0880FF1
:100B4000991F0A94E2F7809582238083DF91CF91E9
:100B5000FF90EF90DF90CF900895109233021092A3
:100B6000320288EE93E0A0E0B0E0809334029093EC
:100B70003502A0933602B093370281EB91E0909357
:100B800031028093300286E992E090933D02809397
:100B90003C0282E592E090933F0280933E0285EC16
:100BA00090E0909341028093400284EC90E0909317
:100BB00043028093420280EC90E090934502809340
:100BC000440281EC90E0909347028093460282ECCD
:100BD00090E0909349028093480286EC90E09093D5
:100BE0004B0280934A0284E080934C0283E080931E
:100BF0004D0287E080934E0285E080934F0281E0B2
:100C000080935002089580910A0390E020910B0395
:100C1000821B9109089520910B0380910A032817E4
:100C200050F4E22FF0E0E45FFC4F808190E02F5F12
:100C300020930B0308958FEF9FEF0895E0910B032E
:100C400080910A03E81730F4F0E0E45FFC4F808104
:100C500090E008958FEF9FEF08950895CF92DF926F
:100C6000EF92FF920F931F93CF93DF937C01CB0101
:100C70008A012091E602222389F0EB016B01C40E68
:100C8000D51ECC15DD0569F06991D701ED91FC9178
:100C90000190F081E02DC7010995F3CF642F0E94E8
:100CA000030AC801DF91CF911F910F91FF90EF9040
:100CB000DF90CF900895CF93DF931F92CDB7DEB72B
:100CC00069832091E6022223D1F02091E7022032AD
:100CD00040F021E030E0FC013383228380E090E0AB
:100CE00015C08091E802E82FF0E0E751FD4F9981AF
:100CF00090838F5F8093E8028093E70205C061E0F4
:100D0000CE0101960E94030A81E090E00F90DF91EE
:100D1000CF910895FC011382128248EE53E060E007
:100D200070E0448355836683778381EC91E09183FF
:100D30008083089510920B0310920A031092E80228
:100D40001092E7020C944E09862F413208F040E2DF
:100D50006CE073E00E946C0910920B0380930A030D
:100D6000089521E00C94A40681E08093E60260934C
:100D700009031092E8021092E70208950C94B40659
:100D80000F93062F21E04091E70269EE72E0809117
:100D900009030E94B0091092E8021092E702109233
:100DA000E6020F91089561E00C94C0068AED92E08E
:100DB0000C948A06DC01ED91FC910190F081E02D0C
:100DC000099440E050E060E87FE3FC0140835183F8
:100DD0006283738308950F931F93CF93DF93EB0187
:100DE0008A016EE170E08AED92E00E94BE06BE01CB
:100DF0008AED92E00E94DA06B8018AED92E00E9444
:100E0000DA068AED92E0DF91CF911F910F910C9459
:100E1000D306CF92DF92EF92FF92CF93DF93EC0154
:100E20006A017B012EEA37E441E65FE3C701B601C0
:100E30000E94820C81110AC088E491EEAAE3BFE30C
:100E400088839983AA83BB8340E08FC026E636E679
:100E500046EA5FE3C701B6010E94820C81110AC015
:100E60008FE195E8ABE6BFE388839983AA83BB83D0
:100E700041E07BC023E333E343EF5FE3C701B60107
:100E80000E94820C81110AC086EF98E2ACE9BFE3B0
:100E900088839983AA83BB8342E067C020E030E067
:100EA00040E250E4C701B6010E94820C81110AC0E1
:100EB0008CE59FE8A2ECBFE388839983AA83BB8378
:100EC00043E053C020E030E040E850E4C701B60101
:100ED0000E94820C81110AC08EEA97E4A1E1B0E47D
:100EE00088839983AA83BB8344E03FC026E636E625
:100EF00046E950E4C701B6010E94820C81110AC084
:100F00008AE097EDA3E2B0E488839983AA83BB8348
:100F100045E02BC023E333E343EB50E4C701B601C4
:100F20000E94820C81110AC085E89BEEA1E4B0E426
:100F300088839983AA83BB8346E017C02AE939E9ED
:100F400041E051E4C701B6010E94820C81110AC040
:100F500083E393E3ABE8B0E488839983AA83BB83FC
:100F600047E003C081E090E009C04295440F407E15
:100F700050E061E070E0CE010E94EB06DF91CF917E
:100F8000FF90EF90DF90CF900895462F50E062E001
:100F900070E00E94EB0608958DEC91E008959F9219
:100FA000AF92BF92CF92DF92EF92FF920F931F9377
:100FB000CF93DF93CDB7DEB77B018A01ADB6BEB666
:100FC0006EE170E08AED92E00E94BE06B7018AED04
:100FD00092E00E94DA068AED92E00E94D3066EE16A
:100FE00070E08AED92E00E94BE06A8016EE170E01A
:100FF0008AED92E00E94B1068DB79EB7801B910BDF
:101000000FB6F8949EBF0FBE8DBF01967C018AED8E
:1010100092E00E9403066C018017910781F4912CE5
:10102000092D10E00C151D0554F48AED92E00E9484
:101030000B06F701E00FF11F80839394F1CF8AED47
:1010400092E00E94D306C7010FB6F894BEBE0FBE51
:10105000ADBEDF91CF911F910F91FF90EF90DF9088
:10106000CF90BF90AF909F900895CF93DF9300D023
:1010700000D000D0CDB7DEB746E050E063E070E0CE
:101080000E94CF07FC01628170E0762F6627838182
:10109000682B448150E0542F44278581482B2081C0
:1010A00030E0322F22278181282B3A8329835C83E9
:1010B0004B837E836D833A815C817E8180E090E00A
:1010C00026960FB6F894DEBF0FBECDBFDF91CF914D
:1010D0000895CF92DF92EF92FF920F931F93CF93D9
:1010E000DF9300D000D000D0CDB7DEB78C017B01FC
:1010F000CB010E94350829833A834B835C836D833F
:101100007E83F701C080D180E280F38069817A819B
:10111000882777FD8095982F0E94210DA7019601C1
:101120000E94010EF80160837183828393836D8135
:101130007E81882777FD8095982F0E94210DA70139
:1011400096010E94010EF80160877187828793875C
:101150006B817C81882777FD8095982F0E94210DD7
:10116000A70196010E94010EF801648375838683AE
:101170009783C80126960FB6F894DEBF0FBECDBF89
:10118000DF91CF911F910F91FF90EF90DF90CF9063
:1011900008951F920F920FB60F9211242F933F9331
:1011A0008F939F93AF93BF9380912D0390912E03C4
:1011B000A0912F03B091300330912C0323E0230F33
:1011C0002D3720F40196A11DB11D05C026E8230F7F
:1011D0000296A11DB11D20932C0380932D039093A3
:1011E0002E03A0932F03B09330038091310390918D
:1011F0003203A0913303B09134030196A11DB11DB8
:101200008093310390933203A0933303B09334035C
:10121000BF91AF919F918F913F912F910F900FBEF2
:101220000F901F901895789484B5826084BD84B522
:10123000816084BD85B5826085BD85B5816085BDD1
:10124000EEE6F0E0808181608083E1E8F0E01082EA
:10125000808182608083808181608083E0E8F0E02B
:10126000808181608083E1EBF0E080818460808315
:10127000E0EBF0E0808181608083EAE7F0E080814C
:1012800084608083808182608083808181608083AC
:101290008081806880831092C10008951092A2031B
:1012A00081E08093A00310929F0361E082E10E949D
:1012B000820B61E083E10E94820BE9EBF0E0808128
:1012C0008E7F808380818D7F808388E48093B800C7
:1012D00085E48093BC000895413208F03FC09091AE
:1012E000A2039111FCCF91E09093A2032093A0035D
:1012F0002FEF2093350310927A03240F2093790364
:101300009093A1039091A103880F892B8093A1034F
:1013100080919F03813041F410929F038091A1033B
:101320008093BB0085EC01C085EE8093BC0080916A
:10133000A2038130E1F380917A03841710F4409185
:101340007A032BE733E0FB01D9018A2F821B841734
:1013500018F48D918193F9CF842F089580E008953A
:101360000F93413208F046C09091A2039111FCCF37
:1013700092E09093A2030093A0039FEF9093350314
:1013800010927A0340937903FB016BE773E0DB0172
:101390009A2F961B941718F491919D93F9CF109260
:1013A000A1039091A103880F892B8093A1038091C1
:1013B0009F03813041F410929F038091A103809399
:1013C000BB0085EC01C085EE8093BC00222321F098
:1013D0008091A2038230E1F3809135038F3F61F069
:1013E00080913503803251F080913503803341F490
:1013F00083E007C081E005C080E003C082E001C057
:1014000084E00F910895613298F42091A203243072
:1014100089F460935703FC0189E593E0DC012A2FEE
:10142000281B261718F421912D93F9CF80E00895F9
:1014300081E0089582E0089585ED8093BC0080915D
:10144000BC0084FDFCCF1092A203089585EC80932C
:10145000BC001092A20308951F920F920FB60F9234
:1014600011242F933F934F935F936F937F938F93A9
:101470009F93AF93BF93EF93FF938091B900887FC1
:10148000803609F49CC068F5883209F45BC090F49A
:10149000803109F454C038F4882309F4F5C0883049
:1014A00009F44DC0F5C0883109F44CC0803209F40C
:1014B0005DC0EEC0803409F468C048F4803309F49C
:1014C00055C0883309F0E4C080933503A8C0803547
:1014D00009F44FC0883509F45DC0883409F0D8C0DC
:1014E000D5C0883909F4C6C0A8F4883709F467C0A4
:1014F00038F4883609F463C0803709F460C0C8C086
:10150000883809F4B7C0803909F45FC0803809F021
:10151000BFC05BC0803B09F485C038F4803A09F451
:1015200066C0883A09F47EC0B3C0803C09F4A6C006
:10153000883C09F4A3C0883B09F489C0A9C0809104
:10154000A10310C090917A0380917903981770F5E8
:10155000E0917A0381E08E0F80937A03F0E0E55802
:10156000FC4F80818093BB0085EC85C08093350360
:101570008DC0E0917A0381E08E0F80937A03809191
:10158000BB00F0E0E558FC4F808390917A03809196
:1015900079036DC0E0917A0381E08E0F80937A0326
:1015A0008091BB00F0E0E558FC4F80838091A00360
:1015B00081116CC081E080939F0384EA60C083E066
:1015C0008093A20310923603CFCF809136038032EE
:1015D00008F050C0E091360381E08E0F809336030F
:1015E0008091BB00F0E0E95CFC4F8083BDCF80912F
:1015F0003603803230F4E0913603F0E0E95CFC4FD2
:1016000010820E941C0A6091360370E0E0919B03F7
:10161000F0919C0387E393E00995109236030E94B2
:10162000260A36C084E08093A203109258031092D9
:101630005703E0919D03F0919E0309958091570314
:10164000811105C081E08093570310925903E09106
:10165000580381E08E0F80935803F0E0E75AFC4F67
:1016600080818093BB009091580380915703981715
:1016700008F47ACF85E88093BC000AC085EC80939B
:10168000BC001092A20304C0109235030E941C0AF1
:10169000FF91EF91BF91AF919F918F917F916F914A
:1016A0005F914F913F912F910F900FBE0F901F9020
:1016B0001895833081F028F4813099F08230A1F0C0
:1016C00008958630A9F08730B9F08430D1F4809144
:1016D00080008F7D03C0809180008F778093800091
:1016E000089584B58F7702C084B58F7D84BD089539
:1016F0008091B0008F7703C08091B0008F7D809380
:10170000B00008950F931F93CF93DF931F92CDB72F
:10171000DEB7282F30E0F901EA56FF4F8491F90136
:10172000E655FF4F1491F901E254FF4F0491002355
:10173000C9F0882321F069830E94590B6981E02F49
:10174000F0E0EE0FFF1FEE52FF4FA591B4919FB74F
:10175000F8948C91611103C01095812301C0812BF5
:101760008C939FBF0F90DF91CF911F910F910895A0
:10177000F8940C94930E5058BB27AA270ED0FCC1A6
:10178000EDD130F0F2D120F031F49F3F11F41EF48E
:10179000BDC10EF4E095E7FBB3C1E92FFED180F3A4
:1017A000BA17620773078407950718F071F49EF55E
:1017B00016C20EF4E0950B2EBA2FA02D0B01B90125
:1017C00090010C01CA01A0011124FF27591B99F0B7
:1017D000593F50F4503E68F11A16F040A22F232FC3
:1017E000342F4427585FF3CF469537952795A79513
:1017F000F0405395C9F77EF41F16BA0B620B730BBA
:10180000840BBAF09150A1F0FF0FBB1F661F771F2A
:10181000881FC2F70EC0BA0F621F731F841F48F4DF
:10182000879577956795B795F7959E3F08F0B3CF65
:101830009395880F08F09927EE0F9795879508954F
:101840008DD158F080E891E009F49EEF8ED128F018
:1018500040E851E059F45EEF09C058C1C0C1E92F1A
:10186000E0789BD168F3092E052AC1F326173707C4
:101870004807590738F00E2E07F8E02569F0E025F3
:10188000E0640AC0EF6307F8009407FADB01B901CE
:101890009D01DC01CA01AD01EF9347D06DD10AD0A3
:1018A0005F91552331F02BED3FE049E450FD49ECC9
:1018B00063CF0895DF93DD27B92FBF7740E85FE35B
:1018C0001616170648075B0710F4D92F93D19F937C
:1018D0008F937F936F93F8D1E8E6F0E01AD14CD163
:1018E0002F913F914F915F9198D1DD2349F090580E
:1018F000A2EA2AED3FE049EC5FE3D0785D274DDFB7
:10190000DF913AC1D9D008F481E008950CD034C1F8
:101910002CD140F023D130F021F45F3F19F0F0C01A
:1019200051115EC1F3C039D198F39923C9F35523FE
:10193000B1F3951B550BBB27AA27621773078407C2
:1019400038F09F5F5F4F220F331F441FAA1FA9F378
:1019500033D00E2E3AF0E0E830D091505040E6956A
:10196000001CCAF729D0FE2F27D0660F771F881FCB
:10197000BB1F261737074807AB07B0E809F0BB0BBA
:10198000802DBF01FF2793585F4F2AF09E3F5105DE
:1019900068F0B6C025C15F3FECF3983EDCF3869556
:1019A00077956795B795F7959F5FC9F7880F911D54
:1019B0009695879597F90895E1E0660F771F881F40
:1019C000BB1F621773078407BA0720F0621B730BF3
:1019D000840BBA0BEE1F88F7E095089504D0689445
:1019E000B111FEC00895E1D088F09F5790F0B92F53
:1019F0009927B751A0F0D1F0660F771F881F991F64
:101A00001AF0BA95C9F712C0B13081F0E8D0B1E050
:101A10000895E5C0672F782F8827B85F39F0B93F60
:101A2000CCF3869577956795B395D9F73EF4909565
:101A30008095709561957F4F8F4F9F4F0895E894E3
:101A400009C097FB3EF490958095709561957F4F06
:101A50008F4F9F4F9923A9F0F92F96E9BB279395B4
:101A6000F695879577956795B795F111F8CFFAF4C4
:101A7000BB0F11F460FF1BC06F5F7F4F8F4F9F4FF5
:101A800016C0882311F096E911C0772321F09EE853
:101A9000872F762F05C0662371F096E8862F70E0B9
:101AA00060E02AF09A95660F771F881FDAF7880F93
:101AB0009695879597F90895990F0008550FAA0BE9
:101AC000E0E8FEEF16161706E807F907C0F0121651
:101AD0001306E407F50798F0621B730B840B950B54
:101AE00039F40A2661F0232B242B252B21F40895A9
:101AF0000A2609F4A140A6958FEF811D811D089546
:101B000097F99F6780E870E060E008959FEF80ECB0
:101B10000895DF93CF931F930F93FF92EF92DF927D
:101B20007B018C01689405C0DA2EEF0176D0FE01AE
:101B3000E894A5912591359145915591AEF3EF012A
:101B40002CDEFE019701A801DA9479F7DF90EF907F
:101B5000FF900F911F91CF91DF91089500240A9477
:101B60001616170618060906089500240A94121678
:101B70001306140605060895092E0394000C11F4AB
:101B8000882352F0BB0F40F4BF2B11F460FF04C058
:101B90006F5F7F4F8F4F9F4F089557FD9058440FB1
:101BA000551F59F05F3F71F04795880F97FB991FBC
:101BB00061F09F3F79F08795089512161306140679
:101BC000551FF2CF4695F1DF08C016161706180606
:101BD000991FF1CF86957105610508940895E894E1
:101BE000BB2766277727CB0197F9089565DF08F4AF
:101BF0008FEF08959B01AC0160E070E080E89FE307
:101C000085CE0BD0B9CFAADF28F0AFDF18F095232F
:101C100009F076CF7BCF1124E3CFBFDFA0F3959FF0
:101C2000D1F3950F50E0551F629FF001729FBB27C3
:101C3000F00DB11D639FAA27F00DB11DAA1F649F6F
:101C40006627B00DA11D661F829F2227B00DA11D22
:101C5000621F739FB00DA11D621F839FA00D611DA8
:101C6000221F749F3327A00D611D231F849F600DC9
:101C7000211D822F762F6A2F11249F5750408AF002
:101C8000E1F088234AF0EE0FFF1FBB1F661F771F8E
:101C9000881F91505040A9F79E3F510570F030CFFA
:101CA0009FCF5F3FECF3983EDCF386957795679581
:101CB000B795F795E7959F5FC1F7FE2B880F911DAC
:101CC0009695879597F908959B01AC019ACFF4DE1C
:101CD000880B990B0895A1E21A2EAA1BBB1BFD01CC
:101CE0000DC0AA1FBB1FEE1FFF1FA217B307E407FB
:101CF000F50720F0A21BB30BE40BF50B661F771F53
:101D0000881F991F1A9469F7609570958095909532
:101D10009B01AC01BD01CF010895EE0FFF1F05909F
:0A1D2000F491E02D0994F894FFCF30
:101D2A002020200948656164696E673A09002052DB
:101D3A00616469616E73202020090020446567721E
:101D4A0065657320202009005374617274696E6797
:101D5A00207468652049324320696E746572666131
:101D6A0063652E00436F6E737472756374696E6770
:101D7A00206E657720484D43353838334C0053651B
:101D8A007474696E67207363616C6520746F202BAD
:101D9A002F2D20312E332047610053657474696EEC
:101DAA0067206D6561737572656D656E74206D6F00
:101DBA00646520746F20636F6E74696E6F75732E1D
:101DCA00006E616E00696E66006F76660000000044
:101DDA0000700412021C0445042C0465040000006F
:101DEA00005B062E0603060B061E062D06456E74BC
:101DFA0065726564207363616C6520776173206E18
:101E0A006F742076616C69642C2076616C69642039
:101E1A0067617573732076616C756573206172658D
:101E2A003A20302E38382C20312E332C20312E39BE
:101E3A002C20322E352C20342E302C20342E372CC8
:0A1E4A0020352E362C20382E3100F2
:00000001FF
